:102AD30050726F6772616D6D652073746172746992
:102AE3006E672E2E2E0A004F4B0A006F757431202D
:102AF3003D20300A006F757431203D20310A006F8C
:102B0300757432203D20310A006F757432203D20E8
:102B1300300A006F757433203D20300A006F7574DE
:102B230033203D20310A0063617264206964203DD3
:052B33002025730A00DB
:1023C40042006A0000410074004100750060320060
:1023D4002C000000000000000000000000000000CD
:1023E40000000000000000000000000000000000E9
:1023F40000000000000000000000000000000000D9
:10240400000000420064000042007200004200909C
:1024140000005400BB0000000000000000000000A9
:1024240000000000000000000042008A0064420036
:1024340086FFD8420070869F42006EFFFF420084F0
:10244400006442007E0000420082000042007C00E2
:102454000042006C0000420068000042007A000064
:102464004200780000420076000042006000004212
:10247400005E000042002A00004200D0000042003A
:102484006200004200660000420080000042002812
:072494000000420088000077
:101DEE00C2A2122D467BFF7A2A79D3122C009000C4
:101DFE006AE07004A3E0640170030222169000767C
:101E0E00E07004A3E06401700930B204D2A2800233
:101E1E00C2A220B77720B774900062E07004A3E0EE
:101E2E00640160F4900066E4F0A304F0D2A2122FD5
:101E3E00CC7F5A7E00122E85900216EEF0A3EFF0A4
:101E4E00122F6A900212E4F0A304F0900214E4F050
:101E5E00A304F07FE87E03122F157FE87E03122F76
:101E6E00157FF47E01122F15123051122D057BFFB6
:101E7E007A2A79EA122C00E4900212F0A3F0900272
:101E8E0014F0A3F0C2A2900066F0A3F030B40302E7
:101E9E001F22900060E07004A3E06401707620B40D
:101EAE0073900088E07002A3E0702FC294900188B6
:101EBE0074FFF0A3742AF0A374EEF07B017A01791B
:101ECE00F41219D07B017A0179F4122C00D2B4905D
:101EDE000088E4F0A304F0021DFC900088E070047A
:101EEE00A3E06401702ED29490018874FFF0A37465
:101EFE002AF0A374F8F07B017A0179F41219D07BE1
:101F0E00017A0179F4122C00D2B4E4900088F0A387
:101F1E00F0021DFC90007CE07004A3E06401703DB3
:101F2E009001BAE0FEA3E0FFD3900087E09FEE643D
:101F3E0080F8900086E06480984022C294900188D8
:101F4E0074FFF0A3742AF0A374EEF07B017A01798A
:101F5E00F41219D07B017A0179F4122C00900082D0
:101F6E00E07004A3E06401703D90008AE0FEA3E0FF
:101F7E00FFD39001BBE09FEE6480F89001BAE0645D
:101F8E0080984022D29490018874FFF0A3742AF0B6
:101F9E00A374F8F07B017A0179F41219D07B017ADF
:101FAE000179F4122C0090007AE07004A3E0640131
:101FBE00703D900084E0FEA3E0FFD39001B9E09F56
:101FCE00EE6480F89001B8E06480984022C2979049
:101FDE00018874FFF0A3742BF0A37402F07B017AD6
:101FEE000179F41219D07B017A0179F4122C009048
:101FFE000078E07004A3E06401703D90007EE0FE86
:10200E00A3E0FFC39001B9E09FEE6480F89001B8A1
:10201E00E06480985022D29790018874FFF0A374E8
:10202E002BF0A3740CF07B017A0179F41219D07B9A
:10203E00017A0179F4122C00900068E07004A3E09C
:10204E006401705790006EE0FEA3E0FFC39001465E
:10205E00E09FEE6480F8900145E0648098503CC2A9
:10206E009690018874FFF0A3742BF0A37416F07B86
:10207E00017A0179F41219D07B017A0179F4122CCC
:10208E000090008CE024D024FF92A1A3E024D02461
:10209E00FF92A0A3E024D024FF92A390006CE070E6
:1020AE0004A3E064017043900070E0FEA3E0FFD350
:1020BE00900146E09FEE6480F8900145E0648098C0
:1020CE004028D29690018874FFF0A3742BF0A3746D
:1020DE0020F07B017A0179F41219D07B017A017913
:1020EE00F4122C00D2A1D2A0D2A3900075E064010C
:1020FE006003021DFC9001EFE07004A3E064017028
:10210E002C90018874FFF0A3742BF0A3742AF0A313
:10211E007401F0A37400F0A374BBF07B017A017913
:10212E00F41219D07B017A0179F4122C0078BB7C61
:10213E00007D017B017A00791412194EEF600302C3
:10214E001DFC90005EE07004A3E0640160030221B8
:10215E00F890002AE07004A3E0640160030221F805
:10216E0078BB7C007D017B017A00791412194EEF49
:10217E007078900062E07004A3E0640160F4900057
:10218E0066E4F0A304F0D2A2122FCC9000D0E0FEB1
:10219E00A3E0FF122E85900216EEF0A3EFF0122FA1
:1021AE006A900212E4F0A304F0900214E4F0A30487
:1021BE00F07FE87E03122F157FE87E03122F157F26
:1021CE00F47E01122F15123051122D057BFF7A2A43
:1021DE0079EA122C00E4900212F0A3F0900214F0AF
:1021EE00A3F0C2A2900066F0A3F0122FCCE59A30B5
:1021FE00E00B539AFE9000CFE59BF080F0E4900048
:10220E0075F0122D05021DFC120046E490006AF0D6
:05221E00A3F0021DFC0D
:102EF700D3EF9400EE940040147D6E7C00ED1D70BE
:0D2F0700011CED4C70F7EF1F70E61E80E31B
:012F1400229A
:102D4600758920758DFD758BFDD28ED29CC29FD262
:102D56009ED2AFD2ACD2BC759A50759CFD438E10F4
:102D660053A2EF43AF01E4F5B5F5B6122F847F8089
:092D7600122FBB1226E2022E23EB
:102FCC00C28EC2AFE4900212F0A3F0900214F0A3F0
:022FDC00F022E1
:102D0500758920758DFD758BFDD28ED29CC29FD2A3
:102D15009ED2AFD2AC759A50759CFD438E1053A2CE
:102D2500EF43AF01E4900212F0A3F0900214F0A378
:102D3500F0D2AFD28ED28CD2B2122F847F80022FE6
:012D4500BBD2
:102F6A00758911758CB2758AE0758DFB758B24D2C3
:0A2F7A00AFD28CD2A9D28ED2AB22C6
:09305100C2A9C28EC2ABD2AF22AB
:0B2C0000900183EBF0A3EAF0A3E9F0E1
:102C0B00900183E0FBA3E0FAA3E0F9120026900108
:102C1B0086EEF0A3EFF0900183E0FBA3E0FAA3E0D4
:102C2B00F9E4FFFED3900187E09FEE6480F89001FA
:102C3B0086E06480984018121691F5993099FDC280
:0F2C4B0099740129F9E43AFA0FBF00010E80D500
:012C5A002257
:102E2300E4F5D8F5E9F5F9F5D990021874B4F0A3EF
:102E3300E4F0900218E0FEA3E0F5EAEEF5FAE024F0
:102E430000F0900218E034B4F075DA49D2DED2AF64
:012E5300225C
:10249B004101B5004901CE525332333200000000E6
:1024AB004201BE00004201BC00004201BA000042E2
:0424BB0001B8000064
:03304600123049FC
:073049000000007F18DFFE0C
:01305000225D
:0E30010000007F017EC27D9FDDFEDEFCDFFA57
:01300F00229E
:0C000E007F167E037DE3DDFEDEFCDFFAE2
:01001A0022C3
:102C5B00E4FE9001C67402F020A70A9001C6E0FFC3
:102C6B0004F0EF70F3123046123049E49001CBF0D0
:102C7B0030A70204F09001C67402F030A70A90014D
:102C8B00C6E0FF04F0EF70F39001C6E0640160163C
:102C9B009001DAE025E0FFF09001CBE04F9001DAF4
:062CAB00F00EEEB408ACCF
:012CB1002200
:10279100C2A7123001D2A7123046D2A730A7030236
:1027A10028379001C67402F020A70A9001C6E0FF05
:1027B10004F0EF70F39001C67402F030A70A9001A3
:1027C100C6E0FF04F0EF70F3122C5B9001DAE090A9
:1027D10001D7F0122C5B9001DAE09001D8F0122CB5
:1027E1005B9001DAE09001C0F0122C5B9001DAE01D
:1027F1009001C1F0122C5B9001DAE0FF9001CAF068
:10280100D2A79001C1E0FE9001C0E0FD2EFC900135
:10281100D7E0FB2CFCA3E0FA2C9001CBF0B5071616
:10282100A3EBF0A3EAF09001B6EDF0A3EEF0900176
:07283100CAE09001C8F0228B
:102DB8001227919001B6E0FF9001BAE4F0A3EFF07A
:102DC8009001B7E0FF9001BEE4F0A3EFF09001CCD2
:102DD800E0FF9001B8E4F0A3EFF09001CDE0FF90A0
:082DE80001BCE4F0A3EFF022AE
:0F24BF0042021605DC4202120000420214000025
:102F1500EF1FAA0670011E4A6013E4FCFDC3ED9481
:0D2F25007DEC940050EA0DBD00010C80F021
:012F3200227C
:102E85007C007D0B1216E9EF24F4FDEE3401FC12F3
:102E9500132DE4FBFA7952784312128BE4FBFA798D
:092EA50034784312118212136605
:012EAE002201
:10222300746573740072657475726E20746573746B
:102233000A0047455454454D504552415455524563
:102243000054203D2025642E25640A006F757431E7
:10225300203D2025640A0047455448554E494449CA
:1022630054590052203D2025642E25640A006F75C1
:102273007432203D2025640A004745544C494748A1
:1022830054006F757433203D2025640A0053455470
:102293005354454552004F4B0A004F5554314F4E4E
:1022A300004F5554324F4E004F5554334F4E004F4D
:1022B3005554314F4646004F5554324F4646004F12
:1022C3005554334F464600534554524742004250FB
:1022D3004D4F4E0042504D4F4646005345544D41DD
:1022E30058005345544D494E005468203D20256401
:1022F3002C2074656D706D696E203D2025640A0085
:1023030054203D2025640A00434152445345540060
:102313005354454552534554004745544F55543142
:10232300004745544F555432004745544F55543395
:1023330000534F554E44464C4147004C494748547F
:10234300464C4147004745545245444C494748543D
:10235300007265646C69676874203D2025640A0017
:10236300474554534F554E44464C414700736F7590
:102373006E64203D2025640A00474554414C4C4679
:102383004C4147494E495400524742203D20256461
:10239300256425640A0062706D203D2025640A00CF
:1023A300524546524553484F4B0A0045584954003D
:1023B300455849544F4B0A005345544D594C4544D5
:0123C3000019
:0524CE004201EF0000D7
:1000460090018674FFF0A37422F0A37423F0A3E456
:10005600F0A37404F07B017A00792C12294CEF701E
:10006600309001EFF0A3F0C2DE90018874FFF0A398
:100076007422F0A37428F07B017A0179F41219D066
:100086007B017A0179F4122C00900072E4F0A3044B
:10009600F07BFF7A227935120026900189EEF0A3D3
:1000A600EFF090018674FFF0A37422F0A37435F08C
:0F00B6007B017A00792C12294CEF600302015272
:1000C500900179F0A3F0122DB890018874FFF0A388
:1000D5007422F0A37444F09001BAE0FFA3E090010C
:1000E5008BCFF0A3EFF09001BEE0FFA3E090018D70
:1000F500CFF0A3EFF07B017A0179F41219D07B01DF
:100105007A0179F4122C0030940A900179E4F0A375
:1001150004F08007E4900179F0A3F090018874FF62
:10012500F0A37422F0A3744FF0900179E0FFA3E0EF
:1001350090018BCFF0A3EFF07B017A0179F41219CE
:0D014500D07B017A0179F4122C001225EA1A
:100152007BFF7A227935120026900189EEF0A3EF17
:10016200F090018674FFF0A37422F0A3745AF07B1E
:0E017200017A00792C12294CEF600302020D75
:10018000900179F0A3F0122DB890018874FFF0A3CC
:100190007422F0A37466F09001B8E0FFA3E0900130
:1001A0008BCFF0A3EFF09001BCE0FFA3E090018DB6
:1001B000CFF0A3EFF07B017A0179F41219D07B0123
:1001C0007A0179F4122C0030970A900179E4F0A3B7
:1001D00004F08007E4900179F0A3F090018874FFA7
:1001E000F0A37422F0A37471F0900179E0FFA3E012
:1001F00090018BCFF0A3EFF07B017A0179F4121913
:0D020000D07B017A0179F4122C001225EA5E
:10020D007BFF7A22797C120026900189EEF0A3EF14
:10021D00F090018674FFF0A37422F0A3747CF07B40
:0B022D00017A00792C12294CEF705868
:10023800900179F0A3F01224E37B017A0079D212BD
:100248002C0030960A900179E4F0A304F08007E4CA
:10025800900179F0A3F090018874FFF0A37422F064
:10026800A37485F0900179E0FFA3E090018BCFF0B3
:10027800A3EFF07B017A0179F41219D07B017A019E
:0802880079F4122C001225EAA2
:100290007BFF7A227990120026900189EEF0A3EF7D
:1002A000F090018674FFF0A37422F0A37490F07BA9
:1002B000017A00792C12294CEF600302037B900134
:1002C000F104F0A37400F0A3742CF0E49001EDF0BD
:1002D000A3F09001F275F008803F9001F1E0FBA3DC
:1002E000E0FAA3E0F9121691FF60333395E0FEEFD8
:1002F00024D0FBEE34FFFA9001EDE0FEA3E0FF7C9A
:10030000007D0A1216E9EF2BFFEE3A9001EDF0A303
:10031000EFF09001F2E475F00112175080BC122F3B
:10032000CC9001EDE0FEA3E0FF122E85900216EEC8
:10033000F0A3EFF0122F6A900212E4F0A304F09001
:100340000214E4F0A304F07FE87E03122F157FE887
:100350007E03122F157FF47E01122F1512305112D9
:100360002D057BFF7A227999122C00E4900212F07D
:10037000A3F0900214F0A3F01225EA7BFF7A227911
:100380009D120026900189EEF0A3EFF09001867493
:10039000FFF0A37422F0A3749DF07B017A00792C06
:1003A00012294CEF7002C2947BFF7A2279A41200CA
:1003B00026900189EEF0A3EFF090018674FFF0A380
:1003C0007422F0A374A4F07B017A00792C12294CDA
:1003D000EF7002C2977BFF7A2279AB120026900160
:1003E00089EEF0A3EFF090018674FFF0A37422F081
:1003F000A374ABF07B017A00792C12294CEF7002C8
:10040000C2967BFF7A2279B2120026900189EEF023
:10041000A3EFF090018674FFF0A37422F0A374B2EE
:10042000F07B017A00792C12294CEF7002D2947B78
:10043000FF7A2279BA120026900189EEF0A3EFF03C
:1004400090018674FFF0A37422F0A374BAF07B01CC
:100450007A00792C12294CEF7002D2977BFF7A2216
:1004600079C2120026900189EEF0A3EFF090018688
:1004700074FFF0A37422F0A374C2F07B017A0079B8
:100480002C12294CEF7002D2967BFF7A2279CA1285
:100490000026900189EEF0A3EFF090018674FFF042
:1004A000A37422F0A374CAF07B017A00792C12297C
:1004B0004CEF7035900032E024D024FF92A1A3E0ED
:1004C00024D024FF92A0A3E024D024FF92A37FE8AD
:1004D0007E03122F157FE87E03122F157FF47E0115
:1004E000122F15D2A3D2A0D2A17BFF7A2279D112EA
:1004F0000026900189EEF0A3EFF090018674FFF0E2
:10050000A37422F0A374D1F07B017A00792C122914
:100510004CEF7002D2A27BFF7A2279D7120026908C
:100520000189EEF0A3EFF090018674FFF0A374222E
:10053000F0A374D7F07B017A00792C12294CEF706C
:1005400002C2A27BFF7A2279DE120026900189EE98
:10055000F0A3EFF090018674FFF0A37422F0A3746F
:10056000DEF07B017A00792C12294CEF6003020740
:100570002B9001F104F0A37400F0A3742CF090010F
:10058000F2E475F0061217509001F1E0FBA3E0FAD7
:10059000A3E0F91216916454707790008AF0A3F0EA
:1005A0009001F275F0041217509001F1E0FBA3E006
:1005B000FAA3E0F9121691700C900082F0A3F0906B
:1005C000008A0206D99001F1E0FBA3E0FAA3E0F96A
:1005D000121691FF60333395E0FEEF24D0FBEE342A
:1005E000FFFA90008AE0FEA3E0FF7C007D0A12166D
:1005F000E9EF2BFFEE3A90008AF0A3EFF09001F2C2
:10060000E475F00112175080BC900082E4F0A3045E
:10061000F09001F1E0FBA3E0FAA3E0F91216916477
:100620004C707C900070F0A3F09001F275F0051210
:1006300017509001F1E0FBA3E0FAA3E0F912169144
:10064000701190006CF0A3F09000707486F0A374A9
:100650009FF0229001F1E0FBA3E0FAA3E0F912166B
:1006600091FF60333395E0FEEF24D0FBEE34FFFAC8
:10067000900070E0FEA3E0FF7C007D0A1216E9EF17
:100680002BFFEE3A900070F0A3EFF09001F2E475CA
:10069000F00112175080BC90006CE4F0A304F090BD
:1006A00001F1E0FBA3E0FAA3E0F9121691644870AF
:1006B0007A900084F0A3F09001F275F004121750C4
:1006C0009001F1E0FBA3E0FAA3E0F9121691700F9C
:1006D00090007AF0A3F0900084F0A37464F022906C
:1006E00001F1E0FBA3E0FAA3E0F9121691FF6033F9
:1006F0003395E0FEEF24D0FBEE34FFFA900084E067
:10070000FEA3E0FF7C007D0A1216E9EF2BFFEE3A14
:10071000900084F0A3EFF09001F2E475F00112175D
:100720005080BC90007AE4F0A304F07BFF7A227939
:10073000E5120026900189EEF0A3EFF09001867497
:10074000FFF0A37422F0A374E5F07B017A00792C0A
:1007500012294CEF60030209869001F104F0A374A2
:1007600000F0A3742CF09001F2E475F0061217501B
:100770009001F1E0FBA3E0FAA3E0F91216916454B2
:10078000600302083F900086F0A3F09001F275F03C
:10079000041217509001F1E0FBA3E0FAA3E0F91274
:1007A0001691701190007CF0A3F090008674FFF019
:1007B000A374D8F0229001F1E0FBA3E0FAA3E0F9E2
:1007C000121691FF60333395E0FEEF24D0FBEE3438
:1007D000FFFA900086E0FEA3E0FF7C007D0A12167F
:1007E000E9EF2BFFEE3A900086F0A3EFF09001F2D4
:1007F000E475F00112175080BC90007CE4F0A30473
:10080000F090018874FFF0A37422F0A374ECF090D0
:1008100001BAE0FFA3E090018BCFF0A3EFF09000CE
:1008200086E0FFA3E090018DCFF0A3EFF07B017A8B
:100830000179F41219D07B017A0179F4122C00901D
:1008400001F1E0FBA3E0FAA3E0F9121691644C6019
:10085000030208FC90006EF0A3F09001F275F00521
:100860001217509001F1E0FBA3E0FAA3E0F9121691
:1008700091700E900068F0A3F074FF90006E020972
:10088000369001F1E0FBA3E0FAA3E0F9121691FF24
:1008900060333395E0FEEF24D0FBEE34FFFA900096
:1008A0006EE0FEA3E0FF7C007D0A1216E9EF2BFF4D
:1008B000EE3A90006EF0A3EFF09001F2E475F001D3
:1008C00012175080BC900068E4F0A304F0900188F7
:1008D00074FFF0A37423F0A37403F0900145E0FFCC
:1008E000A3E090018BCFF0A3EFF07B017A0179F4C4
:1008F0001219D07B017A0179F4122C009001F1E0F9
:10090000FBA3E0FAA3E0F912169164487078900016
:100910007EF0A3F09001F275F0041217509001F1EF
:10092000E0FBA3E0FAA3E0F9121691700D900078B5
:10093000F0A3F090007EF0A3F0229001F1E0FBA381
:10094000E0FAA3E0F9121691FF60333395E0FEEF71
:1009500024D0FBEE34FFFA90007EE0FEA3E0FF7CA3
:10096000007D0A1216E9EF2BFFEE3A90007EF0A30D
:10097000EFF09001F2E475F00112175080BC900086
:1009800078E4F0A304F07BFF7A23790B1200269021
:100990000189EEF0A3EFF090018674FFF0A37423B9
:1009A000F0A3740BF07B017A00792C12294CEF70C4
:0109B00071D5
:1009B1007B0190017904F0A37400F0A37414F0900A
:1009C10001F1EBF0A37400F0A3742CF09001F2E4B8
:1009D10075F00780319001F1E0FBA3E0FAA3E0F9A3
:1009E100121691FF6025900179E0FBA3E0FAA3E0E4
:1009F100F9EF1216D790017AE475F00112175090B1
:100A010001F2E475F00112175080CA900179E0FB00
:100A1100A3E0FAA3E0F9E41216D790002AF0A304A8
:010A2100F0E4
:100A22007BFF7A237913120026900189EEF0A3EF5F
:100A3200F090018674FFF0A37423F0A37413F07B8B
:100A4200017A00792C12294CEF706A9001F104F0BE
:100A5200A37400F0A3742CF09001F2E475F0081274
:100A62001750E49000D0F0A3F09001F1E0FBA3E076
:100A7200FAA3E0F9121691FF60333395E0FEEF24FA
:100A8200D0FBEE34FFFA9000D0E0FEA3E0FF7C0042
:100A92007D0A1216E9EF2BFFEE3A9000D0F0A3EF99
:100AA200F09001F2E475F00112175080BC90005EE4
:100AB200E4F0A304F07BFF7A23791C120026900154
:100AC20089EEF0A3EFF090018674FFF0A37423F097
:100AD200A3741CF07B017A00792C12294CEF704828
:100AE200900179F0A3F0309409900179F0A304F019
:100AF2008007E4900179F0A3F090018874FFF0A3DD
:100B02007422F0A3744FF0900179E0FFA3E090010A
:100B12008BCFF0A3EFF07B017A0179F41219D07B2D
:080B2200017A0179F4122C00A4
:100B2A007BFF7A237924120026900189EEF0A3EF45
:100B3A00F090018674FFF0A37423F0A37424F07B71
:0B0B4A00017A00792C12294CEF704852
:100B5500900179F0A3F0309709900179F0A304F0A2
:100B65008007E4900179F0A3F090018874FFF0A369
:100B75007422F0A37471F0900179E0FFA3E0900175
:100B85008BCFF0A3EFF07B017A0179F41219D07BBA
:080B9500017A0179F4122C0031
:100B9D007BFF7A23792C120026900189EEF0A3EFCA
:100BAD00F090018674FFF0A37423F0A3742CF07BF6
:0B0BBD00017A00792C12294CEF7048DF
:100BC800900179F0A3F0309609900179F0A304F030
:100BD8008007E4900179F0A3F090018874FFF0A3F6
:100BE8007422F0A37485F0900179E0FFA3E09001EE
:100BF8008BCFF0A3EFF07B017A0179F41219D07B47
:080C0800017A0179F4122C00BD
:100C10007BFF7A237934120026900189EEF0A3EF4E
:100C2000F090018674FFF0A37423F0A37434F07B7A
:100C3000017A00792C12294CEF702B7B017A007914
:100C4000359001F104F0A3EAF0A3E9F0121691FF48
:100C5000B43108900060E4F0A304F0EFB43007E48E
:100C6000900060F0A3F07BFF7A23793E120026907B
:100C70000189EEF0A3EFF090018674FFF0A37423D6
:100C8000F0A3743EF07B017A00792C12294CEF70AE
:100C90002B7B017A0079359001F104F0A3EAF0A3EF
:100CA000E9F0121691FFB43108900076E4F0A30445
:100CB000F0EFB43007E4900076F0A3F07BFF7A23E6
:100CC0007948120026900189EEF0A3EFF09001869A
:100CD00074FFF0A37423F0A37448F07B017A0079C9
:070CE0002C12294CEF7051AA
:100CE700900179F0A3F0900076E07004A3E064012E
:100CF7007009900179F0A304F08007E4900179F07E
:100D0700A3F090018874FFF0A37423F0A37454F048
:100D1700900179E0FFA3E090018BCFF0A3EFF07B88
:100D2700017A0179F41219D07B017A0179F4122C36
:010D370000BB
:100D38007BFF7A237963120026900189EEF0A3EFF6
:100D4800F090018674FFF0A37423F0A37463F07B22
:0B0D5800017A00792C12294CEF705139
:100D6300900179F0A3F0900060E07004A3E06401C7
:100D73007009900179F0A304F08007E4900179F001
:100D8300A3F090018874FFF0A37423F0A37470F0B0
:100D9300900179E0FFA3E090018BCFF0A3EFF07B0C
:100DA300017A0179F41219D07B017A0179F4122CBA
:010DB300003F
:100DB4007BFF7A23797C120026900189EEF0A3EF61
:100DC400F090018674FFF0A37423F0A3747CF07B8D
:0E0DD400017A00792C12294CEF60030210E224
:100DE200900179F0A3F09001EFF0A304F0C2DE12BB
:100DF2002DB890018874FFF0A37422F0A37444F01C
:100E02009001BAE0FFA3E090018BCFF0A3EFF09046
:100E120001BEE0FFA3E090018DCFF0A3EFF07B01D4
:100E22007A0179F41219D07B017A0179F4122C003B
:100E320012300190018874FFF0A37422F0A374664B
:100E4200F09001B8E0FFA3E090018BCFF0A3EFF0A8
:100E52009001BCE0FFA3E090018DCFF0A3EFF07B07
:100E6200017A0179F41219D07B017A0179F4122CFA
:100E7200001230011224E37B017A0079D2122C0095
:100E820012300130940A900179E4F0A304F0800753
:100E9200E4900179F0A3F090018874FFF0A374222A
:100EA200F0A3744FF0900179E0FFA3E090018BCFA3
:100EB200F0A3EFF07B017A0179F41219D07B017A69
:100EC2000179F4122C0012300130970A900179E472
:100ED200F0A304F08007E4900179F0A3F090018878
:100EE20074FFF0A37422F0A37471F0900179E0FF13
:100EF200A3E090018BCFF0A3EFF07B017A0179F4AC
:100F02001219D07B017A0179F4122C0012300130CF
:100F1200960A900179E4F0A304F08007E490017945
:100F2200F0A3F090018874FFF0A37422F0A37485FB
:100F3200F0900179E0FFA3E090018BCFF0A3EFF0F6
:100F42007B017A0179F41219D07B017A0179F412CA
:100F52002C0012300120A109E490017BF0A3F08063
:100F62000890017BE4F0A304F020A009E490017D45
:100F7200F0A3F0800890017DE4F0A304F020A3091F
:100F8200E490017FF0A3F0800890017FE4F0A304D5
:100F9200F090018874FFF0A37423F0A3748BF09097
:100FA200017BE0FFA3E090018BCFF0A3EFF0900173
:100FB2007DE0FFA3E090018DCFF0A3EFF090017FE1
:100FC200E0FFA3E090018FCFF0A3EFF07B017A0165
:100FD20079F41219D07B017A0179F4122C001230C3
:100FE2000130A20A900181E4F0A304F08007E490AA
:100FF2000181F0A3F090018874FFF0A37423F0A3A1
:101002007499F0900181E0FFA3E090018BCFF0A3EF
:10101200EFF07B017A0179F41219D07B017A017920
:10102200F4122C00123001900060E07004A3E0641E
:10103200017009900179F0A304F08007E49001792E
:10104200F0A3F090018874FFF0A37423F0A37470EE
:10105200F0900179E0FFA3E090018BCFF0A3EFF0D5
:101062007B017A0179F41219D07B017A0179F412A9
:101072002C00900076E07004A3E0640170099001F6
:1010820079F0A304F08007E4900179F0A3F09001D5
:101092008874FFF0A37423F0A37454F0900179E0F4
:1010A200FFA3E090018BCFF0A3EFF07B017A0179EF
:1010B200F41219D07B017A0179F4122C001230015A
:1010C20090018874FFF0A37423F0A374A3F07B0152
:1010D2007A0179F41219D07B017A0179F4122C0089
:1010E2007BFF7A2379AE120026900189EEF0A3EFFE
:1010F200F090018674FFF0A37423F0A374AEF07B2A
:10110200017A00792C12294CEF701D7BFF7A23792A
:10111200B3122C00122E23D2A212000EC2A2E4900D
:1011220001EFF0A3F01225EA7BFF7A2379BB1200CC
:1011320026900189EEF0A3EFF090018674FFF0A3F0
:101142007423F0A374BBF07B017A00792C12294C32
:10115200EF702C7B017A0079349001F104F0A3EA5C
:10116200F0A3E9F012169190008CF0900001121693
:10117200AA90008DF09000021216AA90008EF02222
:0A24D30042021C000042021E00003D
:03002300022B3875
:0D2B3800C0E0C0F0C083C082C0D075D008DE
:102B450030984AAF99C298EF642A601A900064E4FD
:102B550075F001121766FC742C25F0F58274003CA3
:102B6500F583EFF08027900072E4F0A3F090006405
:102B7500E0FEA3E0242CF58274003EF583E4F0909A
:0D2B8500006AF0A304F0900064E4F0A3F0F7
:0B2B9200D0D0D082D083D0F0D0E03251
:030043000229D3BC
:1029D300C0E0C0F0C083C082C0D075D000C000C0CA
:1029E30004C006C007E59A30E053539AFE9000CF27
:1029F300E59BF0E0FFB40207900090E4F0A3F0EF52
:102A03006402601DEF64036018900090E475F001A8
:102A1300121766FC74BB25F0F58274003CF583EF56
:102A2300F0EFB403189000757401F0900090E0FE8D
:102A3300A3E024B9F58274003EF583E4F0D007D017
:102A430006D004D000D0D0D082D083D0F0D0E032F2
:03000B00022D7F44
:102D7F00C0E0C083C082C0D075D000C006C007902D
:102D8F000212E0FEA3E0FF64014E7010D295758C25
:102D9F00B2758AE0EF64014E7002D28ED007D00672
:092DAF00D0D0D082D083D0E032F4
:03001B00022CB202
:102CB200C0E0C083C082C0D075D000C003C004C0D1
:102CC20005C006C007900214E0FCA3E0FD64014CBD
:102CD200701EC295900216E0FEA3E0FFC3E49FFBC4
:102CE200E49EF58DAF038F8BED64014C7002C28EB2
:102CF200D007D006D005D004D003D0D0D082D08364
:032D0200D0E032EC
:03003B00022A5343
:102A5300C0E0C0F0C083C082C0D075D000C000C049
:102A630001C002C003C004C005C006C007C2D8909D
:102A73000218E0FEA3E0F5EAEEF5FAE02400F09098
:102A83000218E034B4F090021FE004F070069002E4
:102A93001EE004F090021EE07004A3E064287015A9
:102AA30090021EF0A3F090021CF0A3F0122DB812B6
:102AB30024E31225EAD007D006D005D004D003D0F2
:102AC30002D001D000D0D0D082D083D0F0D0E03279
:102F9E006C69676874203D2025640A004C69676877
:072FAE0074203D20256400A2
:0524DD00420145000072
:1028C400AB07AA067C277D101216FBEF243090017B
:1028D4003BF07C277D10AF03AE021216FBAA04ABBB
:1028E400057C037DE8AF03AE021216FBEF243090A3
:1028F4000104F07C037DE8AF03AE021216FBAA04C8
:10290400AB057C007D64AF03AE021216FBEF2430EE
:10291400A3F07C007D64AF03AE021216FBAA04ABE5
:10292400057C007D0AAF03AE021216FBEF24309043
:10293400013AF07C007D0AAF03AE021216FBAB0530
:08294400EB243090013CF0226D
:102F4F00E4FDFCC3ED9FEC9E50107B127A98DAFEE5
:0A2F5F00DBFA000DBD00010C80E953
:012F69002245
:050003007F0CDFFE0090
:0100080022D5
:08305A007F617E8DDEFEDFFACE
:01306200224B
:0F301000D2A4D2A5120003C2A4120003C2A522AB
:0C303A00C2A4D2A5120003D2A40200031D
:0E301F00A20992A4D2A5120003C2A5020003CA
:0D302D00D2A5120003A2A4C2A51200032226
:022F3300AE07E7
:102F3500E4FDEE25E0FE92A4D2A5120003C2A5127F
:0A2F450000030DEDB408EB02302D7F
:102ED600E4FED2A4FDEE25E0FED2A5120003A2A4D4
:102EE600E4334EFEC2A51200030DEDB408E7AF06AB
:012EF60022B9
:102FDE00AC071230107F46122F33AF04122F33027C
:022FEE00303A77
:102E54001230107F47122F33E4FC122ED6743D2C0F
:102E6400F582E43401F583EFF0ECB40304D2098075
:102E740002C20912301F0CECB403DF12303A0230E4
:012E84005AF3
:05001E007F01022FDE4E
:1024E30012001E7F01122FDE7F10122FDE7FB47EBB
:1024F30000122F4F122E5490013DE0FF900106E48D
:10250300F0A3EFF0E0FE90013EE07C002400FFEC3E
:102513003EFE900106F0A3EFF0FDAC06EC12132D86
:102523007B9A7A997999783F12128B121366122843
:10253300C4900104E024D0FFE434FFFE7C037DE873
:102543001216E9AA06AB0790013BE024D0FFE4345E
:10255300FFFE7C277D101216E9EF2BFBEE3AFA9073
:102563000105E024D0FFE434FFFE7C007D641216F5
:10257300E9EF2BFBEE3AFA90013AE024D0FFE43482
:10258300FFFE7D0A1216E9EF2BFFEE3AFE90013CA7
:10259300E024D0FDEC34FFCD2FFFED3EFE9001454E
:1025A300F0A3EFF090018874FFF0A3742FF0A374ED
:1025B3009EF0A3EEF0A3EFF07B017A0079D212191B
:1025C300D090018874FFF0A3742FF0A374AAF09045
:1025D3000145E0FFA3E090018BCFF0A3EFF07B0177
:0725E3007A0179080219D00A
:102B9D002020543A4F46462020523A4F4646202098
:102BAD0020202020200020202025732020202020E0
:102BBD0000202054203D2025642052203D202564F6
:102BCD0020202020202020002020202057656C630D
:102BDD006F6D65202020202020002020205374615F
:102BED007274696E672E2E2E20202020202020202A
:032BFD0020200095
:102DF00074922DF58274003CF583E0FF122FF07F72
:032E0000057E004C
:102E0300D3EF9400EE6480948040147D1E7C00ED2B
:0F2E13001D70011CED4C70F7EF1F70E41E80E185
:012E2200228D
:062FB500E4F0A3F07F80B0
:102FBB00C290C2918F80122DFFD2A6122DFFC2A6F6
:012FCB0022E3
:102FF000D290C2918F80122DFFD2A6122DFFC2A6B1
:0130000022AD
:102F8400C291C2A6C2917F38122FBB7F0C122FBBF5
:0A2F94007F06122FBB7F01022FBB46
:1025EA00900183122FB59001BAE0FEA3E0FFD394C5
:1025FA0046EE6480948090018874FF400DF0A374C5
:10260A002BF0A3749DF0A3EE8014F0A3742BF0A317
:10261A0074BEF09001BAE0FFA3E090018BCFF0A363
:10262A00EFF09001B8E0FFA3E090018DCFF0A3EFA7
:10263A00F07B017A0079921219D090018874FFF028
:10264A00A3742BF0A374B3F0A37401F0A37401F084
:10265A00A37408F07B017A0079A71219D0E49001DB
:10266A0083F0A3F07B017A0079921200269001830D
:10267A00E0FCA3E0FDC39FEE6480F8EC6480985010
:10268A0013122DF0900184E004F070D8900183E0D9
:10269A0004F080D07FC0122FBBE4900183F0A3F036
:1026AA007B017A0079A7120026900183E0FCA3E05F
:1026BA00FDC39FEE6480F8EC648098501A74A72DCD
:1026CA00F5827400122DF7900184E004F070D19025
:0726DA000183E004F080C958
:0126E10022D6
:1026E200900179122FB590018874FFF0A3742BF03A
:1026F200A374D5F07B017A0079921219D0900188E7
:1027020074FFF0A3742BF0A374E7F07B017A0079D5
:10271200A71219D0E4900179F0A3F07B017A007935
:1027220092120026900179E0FCA3E0FDC39FEE64C3
:1027320080F8EC6480985013122DF090017AE00436
:10274200F070D8900179E004F080D07FC0122FBBE6
:10275200E4900179F0A3F07B017A0079A7120026B8
:10276200900179E0FCA3E0FDC39FEE6480F8EC6485
:102772008098501A74A72DF5827400122DF79001DB
:0E2782007AE004F070D1900179E004F080C993
:012790002226
:10118200EC4D6011E8497017ED33EC3304600DE467
:10119200FCFFFEFD22E933E8330470F80213D21299
:1011A200139D58046009E4CC24815006285009029A
:1011B20013DC2840030213D9C0E0EB4A7044B98023
:1011C20006D0E0FB0213C8EF4E701CBD8008EBFF97
:1011D200EAFEE9FD80EBE98DF0A4FEE5F002126B78
:1011E200E9CDF9EAFEEBFFEF89F0A4FCE5F0CE8948
:1011F200F0A42EFFE435F0CD89F0A42DFEE435F005
:101202008067EF4E7005BD80D780C3EF8BF0A4AC32
:10121200F0EE8BF0A42CFCE435F0F8EF8AF0A42C6D
:10122200E5F038FCE433CB8DF0A42CFCE5F03BF880
:10123200EE8AF0A42CFCE5F038F8E433CF89F0A470
:101242002CFCE5F038CF3400CE89F0A42FFFE5F076
:101252003EFEE433C98DF0A42EFEE5F039CD8AF0CE
:10126200A42FFFE5F03EFEE43DFD33D0E0FB500746
:101272000BBB000F0213DCEC2CFCEF33FFEE33FE52
:06128200ED33FD0213B480
:101288000213DCEC5D046005E8590470030213D214
:1012980012139D580460F6EC4860F2EC7004FDFEF1
:1012A800FF22C860DB2481C85009C3986002500639
:1012B8000213D99850CAF582E9294B4A7005AB82C6
:1012C8000213C875F0007C1A7880C3EF9BEE9AED84
:1012D80099400DC3EF9BFFEE9AFEED99FDE842F0B1
:1012E800DC23ACF0D0E0FFD0E0FED0E0FDAB822004
:1012F800E7101BEB60BAEC2CFCEF33FFEE33FEED8E
:1013080033FD0213B4E803F830E705C0F075F000C8
:10131800EF2FFFEE33FEED33FD40B830E7C280AA71
:1013280075F020800E75F010800575F0087D007E40
:10133800007F003392D530D50312177CEC33401070
:10134800EF33FFEE33FEED33FDEC33FCD5F0ED2249
:0E135800E5F0247EA2D513CC92E7CDCEFF2285
:10136600EDD2E7CD33EC3392D524814006E4FFFE7F
:10137600FDFC22FCE4CFCECDCC24E0501174FF80DE
:10138600EDC3CC13CCCD13CDCE13CECF13CF04707B
:07139600F030D5DE02177CE8
:10196B00E5152488F582E43401F583E00515229012
:10197B000185301003900188E475F00112178A027B
:10198B0016912009E97F2ED2098018EF540F24906D
:10199B00D43440D4FF300D0BEF24BFB41A005003E6
:1019AB002461FFE516600215160519E5197002058D
:1019BB001830100E900185E475F00112178AEF02B2
:1019CB0016D7022EAF7403D2108003E4C210F515A4
:1019DB009001851217A1E4F516F518F519E51660B7
:1019EB00077F201219AE80F57517FFC20AC209C214
:1019FB000BC20CC20EC20FC21112197AFF700D303E
:101A0B0010057F001219BFAF19AE1822B4255FC2A3
:101A1B00D5C20D12197AFF24D0B40A00501A75F0F2
:101A2B000A781630D50508B6FF0106C6A426F6209F
:101A3B00D5047002D20C80D924CFB41A00EF500415
:101A4B00C2E5D20D021CB1D20A80C6D20980C0D227
:101A5B000B80BCD2D580BAD20E80B47F201219AEC7
:101A6B00200B077401B5160040F112196BFF121908
:101A7B00AE0219E8D211D20F809512196BFB121915
:101A8B006BFA12196BF94A4B700679AF7A1D7BFF13
:101A9B00200B2EE516602A7E008E827583001216AF
:101AAB00AA60060EEE651770F0C2D5EBC0E0EAC077
:101ABB00E0E9C0E0EE121D12D0E0F9D0E0FAD0E080
:101ACB00FB121691FF60AAEBC0E0EAC0E0E9C0E0B0
:101ADB001219AED0E02401F9D0E03400FAD0E0FBCB
:101AEB00E5170460DCD517D98087D20B80A2121CB6
:101AFB00F460F7E5177001041213E7A917600DE501
:101B0B0017600914F517121D9CEF60F3EA30E7021A
:101B1B00F404C3995079EAF425170430E701E4047F
:101B2B00F517800D121CF460C1EA05172517121367
:101B3B00E7EA9001B4F030E701E4251704D5170468
:101B4B00200E0114121D12E4C0E0121D9C9001B472
:101B5B00E0601320E70714F0121996802204F0D0EE
:101B6B00E014C0E07F00121996E517600712198D7B
:101B7B001517800B300E0312198DD0E00219E8D027
:101B8B00E00480C4121CF4609EE517041213E79066
:101B9B0001B4EAF0E517200E026001042404121DC3
:011BAB001227
:101BAC0074FF04C0E0121D9C121996E517200E025A
:101BBC00600312198DD0E0B517E87F451219A0907B
:101BCC0001B4E07F2B30E7047F2DF404C0E0121940
:101BDC00AED0E075F00A84C0F0121997D0E012195B
:101BEC00970219E8791080027908C20FC211800897
:101BFC00D2D5790A8004790AC2D5E517047002F5AA
:101C0C0017E4FAFDFEFF12196BFC7B08200A131275
:101C1C00196BFD7B1030090A12196BFE12196BFF40
:101C2C007B20EC3382D592D55013C3E43009069F48
:101C3C00FFE49EFEE4200A039DFDE49CFCE4CBF84B
:101C4C00C20AEC700CCFCECDCCE824F8F870F3803F
:101C5C0017C3EF33FFEE33FEED33FDEC33FCEB3308
:101C6C00FB994002FB0FD8E9EB300A05F8D0E0C431
:101C7C0048B20AC0E00AEC4D4E4F78207B0070C28F
:101C8C00EAB5170040BCC0E0121D14D0F0D0E02023
:101C9C000A04C4C0E0C4B20AC0F0121997D0F0D53F
:101CAC00F0EB0219E81217AA1A85531BF0581A56B2
:101CBC004C1A52421BF44F1BFC441BFC491A6B433D
:101CCC001C02551B2F461B8F451AF9471DCF501A66
:101CDC005A2D1A5E2E1A812B1A62231A7F201DB8D8
:101CEC002A1A1A4800001A79E517B4FF037517066B
:101CFC0012196BFC12196BFD12196BFE12196BFF8A
:101D0C009001AD021424790AA2D5200C14300E09CE
:101D1C00B910020404B9080104A2D5200F02500125
:101D2C0004200B68920BB516005034C0E07F2030B5
:101D3C000C197F30A20B720F720E500F121D6BC25A
:101D4C000BC20FC20EC2117F30800F300E03E9C0E0
:101D5C00E01219AE300E03D0E0F9D0E0B516CC305D
:101D6C000E177F30B9100C1219AE7F58300D077F4B
:101D7C00788003B908031219AE300B057F2D0219B8
:101D8C00AE7F202011F87F2B200FF322920B80CFF7
:101D9C007F00B40700500B24ADF582E43401F583C9
:101DAC00E0FF22286E756C6C2900D20A12196B3078
:101DBC000AF8C20A781630D50108F6021A1A2D5004
:101DCC0043495812196B2403B405004001E4901DDB
:101DDC00CA9312199F743A12199FD20C75160402E9
:021DEC001BF0EA
:10139D00E9D2E7C933E833F892D5EDD2E7CD33EC96
:0713AD0033FC5002B2D5220F
:1013B400EC30E7100FBF000C0EBE00080DBD00049A
:1013C4000BEB6014A2D5EB13FCED92E7FD2274FF46
:1013D400FCFDFEFF22E480F8A2D574FF13FC7D809F
:0313E400E480EFB3
:1013E700F920E73624F950037907E4F42402FBE5F2
:1013F70082158270021583DBF6E024FB501BE9603F
:1014070014E4F0E582158270021583E004F0B40A53
:0D14170008E4F0D9EE7401F00A22C2D522DB
:10142400ED33EC3392D5FA602AB4FF33EDC2E77B97
:10143400FF60067A147949E4227A14795220D5049B
:101444007A14794D224E614E002B494E46002D49A7
:101454004E4600E47A08F0A3DAFC7B00740722C04D
:1014640083C082ECC0E0EDC0E0EEC0E0EFC0E0EA93
:1014740075F010A4CAABF075F04DA42BFBE435F065
:10148400FCEA2410FAEB34C5FBEC34D9FCEDC2E7DA
:10149400FF75F056A4F42411C5F0F434C58FF0A4FC
:1014A4002AE5F03BE43CF020E714121651D0E0FFAB
:1014B400D0E0FED0E0FDD0E0FC12128B8014F404E6
:1014C400121651D0E0FFD0E0FED0E0FDD0E0FC12D7
:1014D4001182D082D083E0FAEDD2E7CD33EC33240D
:1014E40082FBE4C3CF33CFCE33CECD33CD33DBF366
:1014F4007B0775F00A846004F0A31B0AE5F0F0A3EF
:101504008FF0740AA4FFACF08EF0740AA42CFEAC25
:10151400F050010C8DF0740AA42CFDE435F0F0A316
:05152400DBDE7407226C
:101529000213D2E86480F8E933E83360110460F00B
:10153900ED33EC337009E8FCE9FDEAFEEBFF220428
:1015490060DED3EB9FEA9EE99DE8C2E78CF0C2F723
:1015590095F0400CE8CCF8E9CDF9EACEFAEBCFFBEF
:1015690012139D85D0F05804700320D5B3E8047098
:10157900075002B2D50213DC92D5EC0460F7E4CC33
:10158900C0E0C398F8603B94186008400DD0E0FBB8
:101599000213B4E4FBFAC9FC8028E830E406E4C984
:1015A900FBE4CAFCE830E305E4C9CACBFCE854070C
:1015B9006010F8C3E913F9EA13FAEB13FBEC13FC17
:1015C900D8F130F52FC3E49CFCEF9BFFEE9AFEEDBA
:1015D90099FDD0E0FBEF4E4D4C701222DB03021354
:1015E900D9EC2CFCEF33FFEE33FEED33FDED30E7A4
:1015F900EB0213B4EF2BFFEE3AFEED39FDD0E0FB21
:1016090050130BBB00030213DCED13FDEE13FEEFC9
:0816190013FFEC13FC0213B4F3
:101621003F8000004120000042C80000447A0000D1
:10163100461C400047C35000497424004B18968053
:101641004CBEBC205A0E1BCA6753C21C749DC5AE4A
:10165100FB60065407601C232312167FEB5438608D
:101661000912166B12167A121182ECF8EDF9EEFAE4
:10167100EFCB22EB12167A80F1543803241C90161A
:1016810021FE93FC0EEE93FD0EEE930ECE93FF2200
:030000000228389B
:0C283800787FE4F6D8FD75812202287F2D
:10169100BB010689828A83E0225002E722BBFE0257
:0916A100E32289828A83E493228A
:1016AA00BB010CE58229F582E5833AF583E02250F5
:1016BA0006E92582F8E622BBFE06E92582F8E2223F
:0D16CA00E58229F582E5833AF583E4932259
:1016D700BB010689828A83F0225002F722BBFE01F2
:0216E700F322EC
:1016E900EF8DF0A4A8F0CF8CF0A428CE8DF0A42E15
:0216F900FE22CF
:1016FB00BC000BBE0029EF8DF084FFADF022E4CCD3
:10170B00F875F008EF2FFFEE33FEEC33FCEE9DEC9B
:10171B00984005FCEE9DFE0FD5F0E9E4CEFD22EDE1
:10172B00F8F5F0EE8420D21CFEADF075F008EF2F2B
:10173B00FFED33FD4007985006D5F0F222C398FD1C
:05174B000FD5F0EA22B9
:10175000C5F0F8A3E028F0C5F0F8E5821582700224
:061760001583E038F022C1
:10176600A3F8E0C5F025F0F0E58215827002158336
:06177600E0C838F0E82293
:0E177C00C3E49FFFE49EFEE49DFDE49CFC227E
:10178A00F8E0FBA3A3E0F925F0F0E58215827002E8
:07179A001583E0FA38F0228C
:0917A100EBF0A3EAF0A3E9F02249
:1017AA00D083D082F8E4937012740193700DA3A3CE
:1017BA0093F8740193F5828883E4737402936860E2
:0617CA00EFA3A3A380DFE2
:102EAF00EFB40A07740D122EBA740A309811A8994C
:102EBF00B8130CC2983098FDA899C298B811F63083
:072ECF0099FDC299F599225B
:1017D000E3F5F009E208B5F06D606B80F3E3F5F036
:1017E00009E608B5F060605E80F387F009E608B5A9
:1017F000F054605280F487F009E208B5F048604682
:1018000080F488828C8387F009E0A3B5F0386036D5
:1018100080F488828C8387F009E493A3B5F0276075
:101820002580F388828C83E3F5F009E0A3B5F016F8
:10183000601480F388828C83E3F5F009E493A3B508
:10184000F004600280F20218FB808580E7808E80C1
:10185000D2803C8015806C807E809B80B5808B80A0
:10186000A1804F8070803A02190789828A83ECFA3E
:10187000E493F5F0A3C8C582C8CCC583CCE493A398
:10188000C8C582C8CCC583CCB5F070606E80E189D4
:10189000828A83E493F5F0A3E208B5F05E605C8091
:1018A000F289828A83E0F5F0A3E608B5F04D604B3B
:1018B00080F389828A83E0F5F0A3E208B5F03C600A
:1018C0003A80F389828A83E493F5F0A3E608B5F0C1
:1018D0002A602880F2805389828A83ECFAE493F5A7
:1018E000F0A3C8C582C8CCC583CCE0A3C8C582C854
:1018F000CCC583CCB5F004600280E27FFFB5F00276
:101900000F2240027F012289828A83ECFAE0F5F0FF
:10191000A3C8C582C8CCC583CCE0A3C8C582C8CC47
:10192000C583CCB5F0D560D380E389828A83ECFA95
:10193000E0F5F0A3C8C582C8CCC583CCE493A3C8A6
:10194000C582C8CCC583CCB5F0B160AF80E288F069
:10195000ED2402B4040050A3F582EB2402B4040089
:0B1960005099232345822390184973FF
:10294C00900183EBF0A3EAF0A3E9F0900186E0FBA1
:10295C00A3E0FAA3E0F9121691FE900183E0FBA329
:10296C00E0FAA3E0F9121691FF6E702AEF600E9058
:10297C00018974FFF5F012175045F070037F0022A7
:10298C00900184E475F001121750900187E475F002
:10299C000112175080B5900183E0FBA3E0FAA3E08D
:1029AC00F9121691FDD3EE6480F8ED648098400323
:1029BC007F0122900186E0FBA3E0FAA3E0F9121656
:0729CC0091FFC3ED9FFF2204
:10002600E4FFFE121691600C0FEF70010E09E970E5
:05003600F20A80EF2238
:10284400021DEEE493A3F8E493A34003F68001F29F
:1028540008DFF48029E493A3F85407240CC8C33395
:10286400C4540F4420C8834004F456800146F6DF64
:10287400E4800B01020408102040809023C4E47E0D
:10288400019360BCA3FF543F30E509541FFEE49359
:10289400A360010ECF54C025E060A840B8E493A320
:1028A400FAE493A3F8E493A3C8C582C8CAC583CA4B
:1028B400F0A3C8C582C8CAC583CADFE9DEE780BE03
:0124E20000F9
:00000001FF
