:102FDA0050726F6772616D6D6520496E6974205316
:102FEA007563636573732E20426175643A393630AE
:102FFA00300A09004F4B0A006F757433203D2030A8
:10300A000A006F757433203D20310A006F757431E0
:10301A00203D20300A006F757431203D20310A00AE
:10302A006F757432203D20310A006F757432203D6D
:10303A0020300A002A63617264206964203D2025D9
:04304A0073230A00E2
:1027DB00420067000041007300410074006032004A
:1027EB0027000000000000000000000000000000B7
:1027FB0000000000000000000000000000000000CE
:10280B0000000000000000000000000000000000BD
:10281B00000000420061000042006F00004200F522
:10282B000000540120000000000000000000000028
:10283B000000000000000000004200750000420094
:10284B008B0064420087FFD842006D869F42006B6D
:10285B00FFFF420085006442007F000042008300BE
:10286B000042007D0000420071000042005B00004E
:10287B004200690000420065000042007B000042FC
:10288B0000790000420077000042005D000042002A
:10289B005900004200250000420135000042005F54
:1028AB000000420063000042008100004200230050
:1028BB000042008900006064009135312044656D51
:1028CB006F20426F6172640D0A436F707972696792
:1028DB006874202863292032303136206277656C8A
:1028EB00636F203C313134333935353838304071F2
:1028FB00712E636F6D3E0D0A4275696C64204461E5
:10290B00746520323031362D30312D33300D0A566F
:0E291B00657273696F6E20312E300D0A000058
:101CB9001235811232627B017A0079911231187BD7
:101CC900FF7A2F79DA12311890008D7431F0A3F070
:101CD900A3F0900067E07004A3E06401700302219F
:101CE90056900077E07004A3E06401700B30B205F0
:101CF900123576800312358130B703021D87122B06
:101D09007190005FE07004A3E0640160F4900063E7
:101D1900E4F0A304F01235761234F17F5A7E0012F2
:101D290033A8900279EEF0A3EFF012348D9002758A
:101D3900E4F0A304F0900277E4F0A304F0122B710D
:101D49007FE87E031234387FE87E031234387FF44B
:101D59007E0112343812358B12321D7BFF7A2F79AE
:101D6900FE123118E4900275F0A3F0900277F0A307
:101D7900F0123581E4900063F0A3F0122B7130B4B6
:101D890003021E3190005DE07004A3E0640160036A
:101D9900021E31900089E07002A3E07041C2969062
:101DA90001EB74FFF0A37430F0A37402F07B017AA5
:101DB9000279571221C87B017A0279571231187FAB
:101DC900E87E031234387FE87E031234387FF47ECC
:101DD90001123438900089E4F0A304F0804A90009D
:101DE90089E07004A3E06401703ED2969001EB741F
:101DF900FFF0A37430F0A3740CF07B017A027957D9
:101E09001221C87B017A0279571231187FE87E03C3
:101E19001234387FE87E031234387FF47E0112349D
:101E290038E4900089F0A3F090007DE07004A3E00D
:101E39006401703D90021DE0FEA3E0FFD39000888D
:101E4900E09FEE6480F8900087E06480984022C2A9
:101E5900949001EB74FFF0A37430F0A37416F07B37
:101E6900017A0279571221C87B017A027957123116
:101E790018900083E07004A3E06401703D90008B2A
:101E8900E0FEA3E0FFD390021EE09FEE6480F8908D
:101E9900021DE06480984022D2949001EB74FFF017
:101EA900A37430F0A37420F07B017A0279571221D0
:101EB900C87B017A02795712311890007BE07004CF
:101EC900A3E06401703D900085E0FEA3E0FFD3909C
:101ED900021CE09FEE6480F890021BE06480984049
:101EE90022C2979001EB74FFF0A37430F0A3742A17
:101EF900F07B017A0279571221C87B017A0279575E
:101F0900123118900079E07004A3E06401703D90EB
:101F1900007FE0FEA3E0FFC390021CE09FEE648017
:101F2900F890021BE06480985022D2979001EB74DC
:101F3900FFF0A37430F0A37434F07B017A0279576F
:101F49001221C87B017A027957123118900065E095
:101F59007004A3E06401703590006BE0FEA3E0FF1C
:101F6900C39001ABE09FEE6480F89001AAE0648021
:101F790098501A90008DE024D024FF92A1A3E02468
:101F8900D024FF92A0A3E024D024FF92A39000695B
:101F9900E07004A3E06401702190006DE0FEA3E00D
:101FA900FFD39001ABE09FEE6480F89001AAE06452
:101FB90080984006D2A1D2A0D2A3900074E0640117
:101FC9006003021CDBA3E07002A3E0704978007C87
:101FD900007D017B017A017920121C9C900076E03A
:101FE90004F07006900075E004F09001EB74FFF0C6
:101FF900A37430F0A3743EF0A37401F0A37401F04C
:10200900A37420F07B017A0279571221C87B017AE7
:1020190002795712311878007C007D017B017A0121
:102029007920121BB3EF603B9001EB74FFF0A374AE
:1020390030F0A3743EF0A37401F0A37401F0A3740B
:1020490020F07B017A0279571221C87B017A027943
:102059005712311878007C007D017B017A017920C3
:10206900121C9C78207C017D017B017A0079141275
:102079001BB3EF6003021CDB900059E07004A3E07E
:1020890064016003022138900025E07004A3E06434
:1020990001600302213878207C017D017B017A00EF
:1020A9007914121BB3EF6003022138122B719000CF
:1020B9005FE07004A3E0640160F4900063E4F0A3BE
:1020C90004F01235761234F1900135E0FEA3E0FFF9
:1020D9001233A8900279EEF0A3EFF012348D90023A
:1020E90075E4F0A304F0900277E4F0A304F0122B56
:1020F900717FE87E031234387FE87E031234387F1B
:10210900F47E0112343812358B12321D7BFF7A2F7F
:1021190079FE123118E4900275F0A3F0900277F07D
:10212900A3F0123581E4900063F0A3F0122B711231
:1021390034F1E59A30E00B539AFE900134E59BF0B7
:1021490080F0E4900074F012321D021CDB1200468C
:0A215900E4900067F0A3F0021CDB25
:10341A00D3EF9400EE940040147D6E7C00ED1D7095
:0D342A00011CED4C70F7EF1F70E61E80E3F3
:013437002272
:10326200758920758DFD758BFDD28ED29CC29FD241
:103272009ED2AFD2ACD2BC759A50759CFD438E10D3
:1032820053A2EF43AF0175B79075B810E4F5B67568
:10329200B5011234A77F801234E0122C6902334642
:1034F100C28EC2AFE4900275F0A3F0900277F0A300
:02350100F022B6
:10321D00758920758DFD758BFDD28ED29CC29FD286
:10322D009ED2AFD2AC759A50759CFD438E1053A2B1
:10323D00EF43AF01E4900275F0A3F0900277F0A395
:10324D00F0D2AFD28ED28CD2B275B79075B810F5D0
:05325D00B675B5012269
:10348D00758911758CB2758AE0758DFB758B24D29B
:0A349D00AFD28CD2A9D28ED2AB229E
:09358B00C2A9C28EC2ABD2AF226C
:0B3118009001E6EBF0A3EAF0A3E9F061
:103123009001E6E0FBA3E0FAA3E0F9120026900188
:10313300E9EEF0A3EFF09001E6E0FBA3E0FAA3E0F1
:10314300F9E4FFFED39001EAE09FEE6480F890017A
:10315300E9E064809840181218F6F5993099FDC299
:0F31630099740129F9E43AFA0FBF00010E80D5E3
:01317200223A
:10334600E4F5D8F5E9F5F9F5D990027B74B4F0A364
:10335600E4F090027BE0FEA3E0F5EAEEF5FAE02465
:1033660000F090027BE034B4F075DA49D2DED2AFD9
:013376002234
:10292900410218004902315253323332000000008B
:10293900420221000042021F000042021D00004223
:04294900021B00006D
:03356B0012356EA8
:07356E000000007F18DFFEE2
:013575002233
:0E35260000007F017EC27D9FDDFEDEFCDFFA2D
:013534002274
:0C000E007F167E037DE3DDFEDEFCDFFAE2
:01001A0022C3
:10317300E4FE9002297402F020A70A900229E0FFDE
:1031830004F0EF70F312356B12356EE490022EF0FB
:1031930030A70204F09002297402F030A70A9002CB
:1031A30029E0FF04F0EF70F3900229E06401601658
:1031B30090023DE025E0FFF090022EE04F90023DAB
:0631C300F00EEEB408ACB2
:0131C90022E3
:102D1800C2A7123526D2A712356BD2A730A7030255
:102D28002DBE9002297402F020A70A900229E0FF24
:102D380004F0EF70F39002297402F030A70A9002B1
:102D480029E0FF04F0EF70F312317390023DE09038
:102D5800023AF012317390023DE090023BF01231DA
:102D68007390023DE0900223F012317390023DE02F
:102D7800900224F012317390023DE0FF90022DF092
:102D8800D2A7900224E0FE900223E0FD2EFC9002E0
:102D98003AE0FB2CFCA3E0FA2C90022EF0B50716C3
:102DA800A3EBF0A3EAF0900219EDF0A3EEF0900285
:072DB8002DE090022BF02238
:1032DB00122D18900219E0FF90021DE4F0A3EFF0FD
:1032EB0090021AE0FF900221E4F0A3EFF090022F7E
:1032FB00E0FF90021BE4F0A3EFF0900230E0FF90B0
:08330B00021FE4F0A3EFF02221
:0F294D0042027905DC4202750000420277000069
:10343800EF1FAA0670011E4A6013E4FCFDC3ED9459
:0D3448007DEC940050EA0DBD00010C80F0F9
:013455002254
:1033A8007C007D0B12194EEF24F4FDEE3401FC1263
:1033B8001592E4FBFA795278431214F0E4FBFA7997
:0933C8003478431213E71215CB0F
:0133D10022D9
:0B357600D2A2900000E4F0A304F022B9
:0A358100C2A2E4900000F0A3F022C3
:1025E60074657374002A72657475726E20746573EF
:1025F60074230A0047455454454D5045524154559D
:102606005245002A54203D2025642E2564230A00C5
:102616002A6F757431203D202564230A00474554EE
:1026260048554E4944495459002A52203D202564B4
:102636002E2564230A002A6F757432203D202564F6
:10264600230A004745544C49474854002A6F75747D
:1026560033203D202564230A0053455453544545F1
:1026660052004F5554314F4E004F5554324F4E0085
:102676004F5554334F4E004F5554314F4646004F39
:102686005554324F4646004F5554334F4646005335
:1026960045545247420042504D4F4E0042504D4F16
:1026A6004646005345544D4158005345544D494EF6
:1026B600002A5468203D2025642C2074656D706DB9
:1026C600696E203D202564230A002A54203D2025DA
:1026D60064230A004341524453455400535445452C
:1026E60052534554004745544F55543100474554BD
:1026F6004F555432004745544F55543300534F55A8
:102706004E44464C4147004C49474854464C414785
:10271600004745545245444C49474854002A72657F
:10272600646C69676874203D202564230A00474568
:1027360054534F554E44464C4147002A736F756EAD
:1027460064203D202564230A00474554414C4C46ED
:102756004C4147494E4954002A524742203D2025C4
:102766006325632563230A002A62706D203D2025B8
:1027760064230A002A524546524553484F4B230AC2
:1027860000474554414C4C53544154450045584923
:1027960054002A455849544F4B230A005345544D7B
:1027A600594C4544002A7267623A256325632563BE
:1027B600230A002A4572726F7220436F64653A25B8
:1027C60073230A002A436F6D6D616E6420446F6E39
:0527D600652E230A003E
:05295C004202500000E2
:100046009001E974FFF0A37425F0A374E6F0A3E42D
:10005600F0A37404F07B017A007927122ED3EF7097
:10006600369001EB74FFF0A37425F0A374EBF07BDC
:10007600017A0279571221C87B017A027957123127
:100086001890006FE4F0A304F0900250E4F0A3048B
:10009600F0900071020A857BFF7A2579FA12002614
:1000A6009001ECEEF0A3EFF09001E974FFF0A37479
:1000B60025F0A374FAF07B017A007927122ED3EF8C
:0200C600706B5D
:1000C8009001DEF0A3F01232DB9001EB74FFF0A395
:1000D8007426F0A37409F090021DE0FFA3E09001DC
:1000E800EECFF0A3EFF0900221E0FFA3E09001F043
:1000F800CFF0A3EFF07B017A0279571221C87B0178
:100108007A02795712311830940A9001DEE4F0A38C
:1001180004F08007E49001DEF0A3F09001EB74FF97
:08012800F0A37426F0A3741685
:100130000202267BFF7A2579FA1200269001ECEE66
:10014000F0A3EFF09001E974FFF0A37426F0A3741C
:0E01500023F07B017A007927122ED3EF706A1C
:10015E009001DEF0A3F01232DB9001EB74FFF0A3FE
:10016E007426F0A3742FF090021BE0FFA3E0900121
:10017E00EECFF0A3EFF090021FE0FFA3E09001F0AE
:10018E00CFF0A3EFF07B017A0279571221C87B01E1
:10019E007A02795712311830970A9001DEE4F0A3F3
:1001AE0004F08007E49001DEF0A3F09001EB74FF01
:0801BE00F0A37426F0A3743CC9
:1001C600805E7BFF7A2679491200269001ECEEF0DC
:1001D600A3EFF09001E974FFF0A37426F0A374492D
:0D01E600F07B017A007927122ED3EF7058BC
:1001F3009001DEF0A3F01229717B017A01793712A5
:10020300311830960A9001DEE4F0A304F08007E48D
:100213009001DEF0A3F09001EB74FFF0A37426F0DD
:10022300A37452F09001DEE0FFA3E09001EECFF063
:10023300A3EFF07B017A0279571221C87B017A027E
:0502430079571231188B
:100248000213097BFF7A26795F1200269001ECEEF3
:10025800F0A3EFF09001E974FFF0A37426F0A37403
:100268005FF07B017A007927122ED3EF6003020337
:100278003390025404F0A37400F0A37427F0E490C0
:100288000252F0A3F090025575F008803F90025496
:10029800E0FBA3E0FAA3E0F91218F6FF6033339508
:1002A800E0FEEF24D0FBEE34FFFA900252E0FEA30A
:1002B800E0FF7C007D0A12194EEF2BFFEE3A900208
:1002C80052F0A3EFF0900255E475F0011219B580D1
:1002D800BC122B711234F1900252E0FEA3E0FF121F
:1002E80033A8900279EEF0A3EFF012348D900275E6
:1002F800E4F0A304F0900277E4F0A304F0122B7169
:100308007FE87E031234387FE87E031234387FF4A6
:100318007E0112343812358B12321DE4900275F0CA
:10032800A3F0900277F0A3F00213097BFF7A2679F5
:10033800681200269001ECEEF0A3EFF09001E9744A
:10034800FFF0A37426F0A37468F07B017A00792784
:10035800122ED3EF7005C2940213C67BFF7A26795A
:100368006F1200269001ECEEF0A3EFF09001E97413
:10037800FFF0A37426F0A3746FF07B017A0079274D
:10038800122ED3EF7005C2970213C67BFF7A267927
:10039800761200269001ECEEF0A3EFF09001E974DC
:1003A800FFF0A37426F0A37476F07B017A00792716
:1003B800122ED3EF7005C2960213C67BFF7A2679F8
:1003C8007D1200269001ECEEF0A3EFF09001E974A5
:1003D800FFF0A37426F0A3747DF07B017A007927DF
:1003E800122ED3EF7005D2940213C67BFF7A2679BA
:1003F800851200269001ECEEF0A3EFF09001E9746D
:10040800FFF0A37426F0A37485F07B017A007927A6
:10041800122ED3EF7005D2970213C67BFF7A267986
:100428008D1200269001ECEEF0A3EFF09001E97434
:10043800FFF0A37426F0A3748DF07B017A0079276E
:10044800122ED3EF7005D2960213C67BFF7A267957
:10045800951200269001ECEEF0A3EFF09001E974FC
:10046800FFF0A37426F0A37495F07B017A00792736
:10047800122ED3EF703890002DE024D024FF92A1E3
:10048800A3E024D024FF92A0A3E024D024FF92A3C9
:100498007FE87E031234387FE87E031234387FF415
:1004A8007E01123438D2A3D2A0D2A10213C67BFF98
:1004B8007A26799C1200269001ECEEF0A3EFF090DA
:1004C80001E974FFF0A37426F0A3749CF07B017A11
:1004D800007927122ED3EF70061235760213C67BE9
:1004E800FF7A2679A21200269001ECEEF0A3EFF035
:1004F8009001E974FFF0A37426F0A374A2F07B01C5
:100508007A007927122ED3EF7003020C3B7BFF7A17
:100518002679A91200269001ECEEF0A3EFF09001E5
:10052800E974FFF0A37426F0A374A9F07B017A00A4
:100538007927122ED3EF60030206FE90025404F0CE
:10054800A37400F0A37427F0900255E475F0061226
:1005580019B5900254E0FBA3E0FAA3E0F91218F6EB
:100568006454707790008BF0A3F090025575F004F6
:100578001219B5900254E0FBA3E0FAA3E0F91218AF
:10058800F6700C900083F0A3F090008B0206AE90FA
:100598000254E0FBA3E0FAA3E0F91218F6FF603377
:1005A8003395E0FEEF24D0FBEE34FFFA90008BE0A9
:1005B800FEA3E0FF7C007D0A12194EEF2BFFEE3AF6
:1005C80090008BF0A3EFF0900255E475F00112193A
:1005D800B580BC900083E4F0A304F0900254E0FBE3
:1005E800A3E0FAA3E0F91218F6644C707C90006D51
:1005F800F0A3F090025575F0051219B5900254E079
:10060800FBA3E0FAA3E0F91218F67011900069F064
:10061800A3F090006D7486F0A3749FF022900254AA
:10062800E0FBA3E0FAA3E0F91218F6FF6033339574
:10063800E0FEEF24D0FBEE34FFFA90006DE0FEA35D
:10064800E0FF7C007D0A12194EEF2BFFEE3A900076
:100658006DF0A3EFF0900255E475F0011219B58022
:10066800BC900069E4F0A304F0900254E0FBA3E01E
:10067800FAA3E0F91218F6644860030213C6900062
:1006880085F0A3F090025575F0041219B590025444
:10069800E0FBA3E0FAA3E0F91218F6700F90007BD4
:1006A800F0A3F0900085F0A37464F022900254E067
:1006B800FBA3E0FAA3E0F91218F6FF60333395E0E4
:1006C800FEEF24D0FBEE34FFFA900085E0FEA3E0B5
:1006D800FF7C007D0A12194EEF2BFFEE3A90008541
:1006E800F0A3EFF0900255E475F0011219B580BC43
:1006F80090007B020A857BFF7A2679B0120026904B
:1007080001ECEEF0A3EFF09001E974FFF0A374267A
:10071800F0A374B0F07B017A007927122ED3EF6032
:100728000302095A90025404F0A37400F0A374273A
:10073800F0900255E475F0061219B5900254E0FBEA
:10074800A3E0FAA3E0F91218F66454600302081251
:10075800900087F0A3F090025575F0041219B59037
:100768000254E0FBA3E0FAA3E0F91218F670119026
:10077800007DF0A3F090008774FFF0A374D8F022F6
:10078800900254E0FBA3E0FAA3E0F91218F6FF6028
:10079800333395E0FEEF24D0FBEE34FFFA90008768
:1007A800E0FEA3E0FF7C007D0A12194EEF2BFFEE5E
:1007B8003A900087F0A3EFF0900255E475F001122B
:1007C80019B580BC90007DE4F0A304F09001EB74AF
:1007D800FFF0A37426F0A374B7F090021DE0FFA306
:1007E800E09001EECFF0A3EFF0900087E0FFA3E0E8
:1007F8009001F0CFF0A3EFF07B017A027957122134
:10080800C87B017A027957123118900254E0FBA391
:10081800E0FAA3E0F91218F6644C60030208CF90DE
:10082800006BF0A3F090025575F0051219B590020F
:1008380054E0FBA3E0FAA3E0F91218F6700E90005A
:1008480065F0A3F074FF90006B02090C900254E06D
:10085800FBA3E0FAA3E0F91218F6FF60333395E042
:10086800FEEF24D0FBEE34FFFA90006BE0FEA3E02D
:10087800FF7C007D0A12194EEF2BFFEE3A90006BB9
:10088800F0A3EFF0900255E475F0011219B580BCA1
:10089800900065E4F0A304F09001EB74FFF0A374FA
:1008A80026F0A374D0F09001AAE0FFA3E09001EE37
:1008B800CFF0A3EFF07B017A0279571221C87B01B0
:1008C8007A027957123118900254E0FBA3E0FAA398
:1008D800E0F91218F6644860030213C690007FF02E
:1008E800A3F090025575F0041219B5900254E0FB7C
:1008F800A3E0FAA3E0F91218F6700D900079F0A3BE
:10090800F090007FF0A3F022900254E0FBA3E0FAFD
:10091800A3E0F91218F6FF60333395E0FEEF24D018
:10092800FBEE34FFFA90007FE0FEA3E0FF7C007D41
:100938000A12194EEF2BFFEE3A90007FF0A3EFF06A
:10094800900255E475F0011219B580BC9000790247
:100958000A857BFF7A2679DA1200269001ECEEF000
:10096800A3EFF09001E974FFF0A37426F0A374DA02
:0D097800F07B017A007927122ED3EF70700A
:100985007B019001DE04F0A37400F0A37414F090D1
:100995000254EBF0A37400F0A37427F0900255E421
:1009A50075F0078031900254E0FBA3E0FAA3E0F96B
:1009B5001218F6FF60259001DEE0FBA3E0FAA3E044
:1009C500F9EF12193C9001DFE475F0011219B590A9
:1009D5000255E475F0011219B580CA9001DEE0FBFD
:0D09E500A3E0FAA3E0F9E412193C9000250C
:1009F200020A867BFF7A2679E21200269001ECEE4B
:100A0200F0A3EFF09001E974FFF0A37426F0A37451
:100A1200E2F07B017A007927122ED3EF706D9002FB
:100A22005404F0A37400F0A37427F0900255E47507
:100A3200F0081219B5E4900135F0A3F0900254E0E9
:100A4200FBA3E0FAA3E0F91218F6FF60333395E056
:100A5200FEEF24D0FBEE34FFFA900135E0FEA3E076
:100A6200FF7C007D0A12194EEF2BFFEE3A90013502
:100A7200F0A3EFF0900255E475F0011219B580BCB5
:100A8200900059E4F0A304F00213C67BFF7A2679A2
:100A9200EB1200269001ECEEF0A3EFF09001E97466
:100AA200FFF0A37426F0A374EBF07B017A007927A0
:060AB200122ED3EF7029A3
:100AB8009001DEF0A3F03094099001DEF0A304F079
:100AC8008007E49001DEF0A3F09001EB74FFF0A33F
:060AD8007426F0A3741661
:100ADE00020CF77BFF7A2679F31200269001ECEEDA
:100AEE00F0A3EFF09001E974FFF0A37426F0A37465
:0E0AFE00F3F07B017A007927122ED3EF7029D6
:100B0C009001DEF0A3F03097099001DEF0A304F021
:100B1C008007E49001DEF0A3F09001EB74FFF0A3EA
:060B2C007426F0A3743CE6
:100B3200020CF77BFF7A2679FB1200269001ECEE7D
:100B4200F0A3EFF09001E974FFF0A37426F0A37410
:0E0B5200FBF07B017A007927122ED3EF702979
:100B60009001DEF0A3F03096099001DEF0A304F0CE
:100B70008007E49001DEF0A3F09001EB74FFF0A396
:060B80007426F0A374527C
:100B8600020CF77BFF7A2779031200269001ECEE20
:100B9600F0A3EFF09001E974FFF0A37427F0A374BB
:100BA60003F07B017A007927122ED3EF702E7B019A
:100BB6007A00793090025404F0A3EAF0A3E9F01227
:100BC60018F6FFB4310890005DE4F0A304F0EF647A
:100BD6003060030213C690005D0212C67BFF7A27BF
:100BE600790D1200269001ECEEF0A3EFF09001E9EA
:100BF60074FFF0A37427F0A3740DF07B017A0079DB
:100C060027122ED3EF70347B017A0079309002548C
:100C160004F0A3EAF0A3E9F01218F6FFB431089045
:100C26000077E4F0A304F0EF643060030213C6908B
:100C36000077F0A3F01235810213C67BFF7A27797D
:100C4600171200269001ECEEF0A3EFF09001E97484
:100C5600FFF0A37427F0A37417F07B017A007927BD
:060C6600122ED3EF7031E5
:100C6C009001DEF0A3F0900077E07004A3E0640143
:100C7C0070099001DEF0A304F08007E49001DEF02F
:0F0C8C00A3F09001EB74FFF0A37427F0A374237F
:100C9B00805A7BFF7A2779341200269001ECEEF014
:100CAB00A3EFF09001E974FFF0A37427F0A3743461
:0D0CBB00F07B017A007927122ED3EF704BE9
:100CC8009001DEF0A3F090005DE07004A3E0640101
:100CD80070099001DEF0A304F08007E49001DEF0D3
:100CE800A3F09001EB74FFF0A37427F0A37441F014
:100CF8009001DEE0FFA3E09001EECFF0A3EFF07BE0
:080D0800017A0279571221C89B
:100D10000213BD7BFF7A27794F1200269001ECEE7B
:100D2000F0A3EFF09001E974FFF0A37427F0A3742F
:100D30004FF07B017A007927122ED3EF6003020F68
:010D4000FEB4
:100D41009001DEF0A3F01232DB9001EB74FFF0A30F
:100D51007426F0A37409F090021DE0FFA3E0900156
:100D6100EECFF0A3EFF0900221E0FFA3E09001F0BD
:100D7100CFF0A3EFF07B017A0279571221C87B01F2
:100D81007A0279571231189001EB74FFF0A374269F
:100D9100F0A3742FF090021BE0FFA3E09001EECFCF
:100DA100F0A3EFF090021FE0FFA3E09001F0CFF07D
:100DB100A3EFF07B017A0279571221C87B017A02F5
:100DC1007957123118122971122B717B017A01792D
:100DD1003712311830940A9001DEE4F0A304F08058
:100DE10007E49001DEF0A3F09001EB74FFF0A3742F
:100DF10026F0A37416F09001DEE0FFA3E09001EE6F
:100E0100CFF0A3EFF07B017A0279571221C87B0161
:100E11007A02795712311830970A9001DEE4F0A373
:100E210004F08007E49001DEF0A3F09001EB74FF81
:100E3100F0A37426F0A3743CF09001DEE0FFA3E080
:100E41009001EECFF0A3EFF07B017A0279571221E6
:100E5100C87B017A02795712311830960A9001DE67
:100E6100E4F0A304F08007E49001DEF0A3F0900128
:100E7100EB74FFF0A37426F0A37452F09001DEE04E
:100E8100FFA3E09001EECFF0A3EFF07B017A0279AE
:100E9100571221C87B017A02795712311820A10912
:100EA100E49001E0F0A3F080089001E0E4F0A304F5
:100EB100F020A009E49001E2F0A3F080089001E2A3
:100EC100E4F0A304F020A309E49001E4F0A3F0808E
:100ED100089001E4E4F0A304F09001EB74FFF0A3A7
:100EE1007427F0A3745EF090008DE09001EEF09015
:100EF100008EE09001EFF090008FE09001F0F07B28
:100F0100017A0279571221C87B017A02795712318D
:100F1100189001EB74FFF0A37427F0A3746EF090A6
:100F21000000E0FFA3E09001EECFF0A3EFF07B0122
:100F31007A0279571221C87B017A02795712311846
:100F410090005DE07004A3E0640170099001DEF09F
:100F5100A304F08007E49001DEF0A3F09001EB74AC
:100F6100FFF0A37427F0A37441F09001DEE0FFA32A
:100F7100E09001EECFF0A3EFF07B017A02795712F6
:100F810021C87B017A027957123118900077E070FD
:100F910004A3E0640170099001DEF0A304F080076E
:100FA100E49001DEF0A3F09001EB74FFF0A374274D
:100FB100F0A37423F09001DEE0FFA3E09001EECFF7
:100FC100F0A3EFF07B017A0279571221C87B017AF5
:100FD1000279571231189001EB74FFF0A37427F0D6
:100FE100A3747AF07B017A0279571221C87B017AC6
:0A0FF100027957123118E490005BFA
:100FFB000212C67BFF7A2779871200269001ECEE4E
:10100B00F0A3EFF09001E974FFF0A37427F0A37441
:10101B0087F07B017A007927122ED3EF600302123F
:01102B00CCF8
:10102C009001DEF0A3F01232DB9001EB74FFF0A321
:10103C007426F0A37409F090021DE0FFA3E0900168
:10104C00EECFF0A3EFF0900221E0FFA3E09001F0CF
:10105C00CFF0A3EFF07B017A0279571221C87B0104
:10106C007A0279571231189001EB74FFF0A37426B1
:10107C00F0A3742FF090021BE0FFA3E09001EECFE1
:10108C00F0A3EFF090021FE0FFA3E09001F0CFF08F
:10109C00A3EFF07B017A0279571221C87B017A0207
:1010AC007957123118122971122B717B017A01793F
:1010BC003712311830940A9001DEE4F0A304F0806A
:1010CC0007E49001DEF0A3F09001EB74FFF0A37441
:1010DC0026F0A37416F09001DEE0FFA3E09001EE81
:1010EC00CFF0A3EFF07B017A0279571221C87B0174
:1010FC007A02795712311830970A9001DEE4F0A386
:10110C0004F08007E49001DEF0A3F09001EB74FF93
:10111C00F0A37426F0A3743CF09001DEE0FFA3E092
:10112C009001EECFF0A3EFF07B017A0279571221F8
:10113C00C87B017A02795712311830960A9001DE79
:10114C00E4F0A304F08007E49001DEF0A3F090013A
:10115C00EB74FFF0A37426F0A37452F09001DEE060
:10116C00FFA3E09001EECFF0A3EFF07B017A0279C0
:10117C00571221C87B017A02795712311820A10924
:10118C00E49001E0F0A3F080089001E0E4F0A30407
:10119C00F020A009E49001E2F0A3F080089001E2B5
:1011AC00E4F0A304F020A309E49001E4F0A3F080A0
:1011BC00089001E4E4F0A304F09001EB74FFF0A3B9
:1011CC007427F0A3745EF090008DE09001EEF09027
:1011DC00008EE09001EFF090008FE09001F0F07B3A
:1011EC00017A0279571221C87B017A0279571231A0
:1011FC00189001EB74FFF0A37427F0A3746EF090B9
:10120C000000E0FFA3E09001EECFF0A3EFF07B0134
:10121C007A0279571221C87B017A02795712311858
:10122C0090005DE07004A3E0640170099001DEF0B1
:10123C00A304F08007E49001DEF0A3F09001EB74BE
:10124C00FFF0A37427F0A37441F09001DEE0FFA33C
:10125C00E09001EECFF0A3EFF07B017A0279571208
:10126C0021C87B017A027957123118900077E0700F
:10127C0004A3E0640170099001DEF0A304F0800780
:10128C00E49001DEF0A3F09001EB74FFF0A374275F
:10129C00F0A37423F09001DEE0FFA3E09001EECF09
:1012AC00F0A3EFF07B017A0279571221C87B017A07
:0D12BC00027957123118E490005BF0A3F0A6
:1012C9000213C67BFF7A2779931200269001ECEE70
:1012D900F0A3EFF09001E974FFF0A37427F0A37471
:1012E90093F07B017A007927122ED3EF70187BFFD8
:1012F9007A27799812311812357612000E12358133
:10130900122B710213C67BFF7A2779A2120026904D
:1013190001ECEEF0A3EFF09001E974FFF0A374275C
:10132900F0A374A2F07B017A007927122ED3EF7013
:10133900607B017A00792F90025404F0A3EAF0A3AC
:10134900E9F01218F690008DF090000112190F9033
:10135900008EF090000212190FFF90008FF090019B
:10136900EB74FFF0A37427F0A374ABF090008DE049
:101379009001EEF090008EE09001EFF0A3EFF07A8B
:101389000279571221C87B017A02795712311880E4
:10139900239001EB74FFF0A37427F0A374B9F0A3B1
:1013A9007401F0A37400F0A37427F07B017A027929
:1013B900571221C87B017A0279571231189001EB33
:1013C90074FFF0A37427F0A374CAF07B017A027941
:0E13D900571221C87B017A027957123118226F
:0A29610042027F00004202810000E4
:0300230002304E5A
:0D304E00C0E0C0F0C083C082C0D075D008C3
:10305B0030984AAF99C298EF642A601A900061E4E5
:10306B0075F0011219CBFC742725F0F58274003C26
:10307B00F583EFF0802790006FE4F0A3F0900061F0
:10308B00E0FEA3E02427F58274003EF583E4F09084
:0D309B000067F0A304F0900061E4F0A3F0E2
:0B30A800D0D0D082D083D0F0D0E03236
:03004300022F5A2F
:102F5A00C0E0C0F0C083C082C0D075D000C000C03D
:102F6A0004C006C007E59A30E053539AFE90013434
:102F7A00E59BF0E0FFB402079000F5E4F0A3F0EF60
:102F8A006402601DEF640360189000F5E475F001B7
:102F9A001219CBFC742025F0F58274013CF583EFFD
:102FAA00F0EFB403189000747401F09000F5E0FE9D
:102FBA00A3E0241EF58274013EF583E4F0D007D025
:102FCA0006D004D000D0D0D082D083D0F0D0E03266
:03000B000232A21C
:1032A200C0E0C083C082C0D075D000C006C0079005
:1032B2000275E0FEA3E0FF64014E7010D295758C9A
:1032C200B2758AE0EF64014E7002D28ED007D0064A
:0932D200D0D0D082D083D0E032CC
:03001B000231CAE5
:1031CA00C0E0C083C082C0D075D000C003C004C0B4
:1031DA0005C006C007900277E0FCA3E0FD64014C3D
:1031EA00701EC295900279E0FEA3E0FFC3E49FFB44
:1031FA00E49EF58DAF038F8BED64014C7002C28E95
:10320A00D007D006D005D004D003D0D0D082D08346
:03321A00D0E032CF
:03003B00022A781E
:102A7800C0E0C0F0C083C082C0D075D000C000C024
:102A880001C002C003C004C005C006C007900071A1
:102A9800E07002A3E07048C2D890027BE0FEA3E099
:102AA800F5EAEEF5FAE02400F090027BE034B4F0A9
:102AB800900282E004F07006900281E004F0900237
:102AC80081E07004A3E064147015900281F0A3F013
:102AD80090027FF0A3F01232DB122971122B719051
:102AE8000071E07004A3E064017063C2D890027BB7
:102AF800E0FEA3E0F5EAEEF5FAE02400F090027BB0
:102B0800E034B4F0900282E004F07006900281E0B4
:102B180004F0900281E07004A3E064147030900225
:102B280081F0A3F090005CE004F0700690005BE098
:102B380004F090005BE07004A3E0640570101235A7
:102B48007612000E123581900071E4F0A3F0D007E0
:102B5800D006D005D004D003D002D001D000D0D008
:092B6800D082D083D0F0D0E0321D
:1034C1002A6C69676874203D202564230A004C69D1
:0934D100676874203D20256400A9
:05296B004201AA00007A
:102E4B00AB07AA067C277D10121960EF2430900186
:102E5B00A0F07C277D10AF03AE02121960AA04AB61
:102E6B00057C037DE8AF03AE02121960EF243090AE
:102E7B000169F07C037DE8AF03AE02121960AA046E
:102E8B00AB057C007D64AF03AE02121960EF2430FA
:102E9B00A3F07C007D64AF03AE02121960AA04ABF1
:102EAB00057C007D0AAF03AE02121960EF2430904F
:102EBB00019FF07C007D0AAF03AE02121960AB05D7
:082ECB00EB24309001A1F0227C
:10347200E4FDFCC3ED9FEC9E50107B127A98DAFEBD
:0A348200DBFA000DBD00010C80E92B
:01348C00221D
:050003007F0CDFFE0090
:0100080022D5
:083594007F617E8DDEFEDFFA8F
:01359C00220C
:0F353500D2A4D2A5120003C2A4120003C2A52281
:0C355F00C2A4D2A5120003D2A4020003F3
:0E354400A20992A4D2A5120003C2A5020003A0
:0D355200D2A5120003A2A4C2A512000322FC
:02345600AE07BF
:10345800E4FDEE25E0FE92A4D2A5120003C2A51257
:0A34680000030DEDB408EB0235522D
:1033F900E4FED2A4FDEE25E0FED2A5120003A2A4AC
:10340900E4334EFEC2A51200030DEDB408E7AF0682
:013419002290
:10350300AC071235357F46123456AF0412345602D7
:02351300355F22
:103377001235357F47123456E4FC1233F974A22C08
:10338700F582E43401F583EFF0ECB40304D209804D
:1033970002C2091235440CECB403DF12355F023563
:0133A7009491
:05001E007F0102350323
:1029710012001E7F011235037F101235037FB47ED2
:10298100001234721233779001A2E0FF90016BE4E0
:10299100F0A3EFF0E0FE9001A3E07C002400FFEC47
:1029A1003EFE90016BF0A3EFF0FDAC06EC12159228
:1029B1007B9A7A997999783F1214F01215CB122EDD
:1029C1004B900169E024D0FFE434FFFE7C037DE8F5
:1029D10012194EAA06AB079001A0E024D0FFE434FF
:1029E100FFFE7C277D1012194EEF2BFBEE3AFA9079
:1029F100016AE024D0FFE434FFFE7C007D641219FB
:102A01004EEF2BFBEE3AFA90019FE024D0FFE43425
:102A1100FFFE7D0A12194EEF2BFFEE3AFE9001A147
:102A2100E024D0FDEC34FFCD2FFFED3EFE9001AA56
:102A3100F0A3EFF09001EB74FFF0A37434F0A374F2
:102A4100C1F0A3EEF0A3EFF07B017A0179371221F7
:102A5100C89001EB74FFF0A37434F0A374CFF0902D
:102A610001AAE0FFA3E09001EECFF0A3EFF07B011C
:072A71007A01796D0221C812
:1030B3002020543A4F46462020523A4F464620207D
:1030C30020202020200020202025732020202020C5
:1030D30000202054203D2025642052203D202564DB
:1030E30020202020202020002020353144656D6FD2
:1030F300426F617264202020202020002020205372
:1031030074617274696E672E2E2E20202020202079
:05311300202020200037
:1033130074F72DF58274003CF583E0FF1235157FB9
:03332300057E0024
:10332600D3EF9400EE6480948040147D1E7C00ED03
:0F3336001D70011CED4C70F7EF1F70E41E80E15D
:013345002265
:0634DA00E4F0A3F07F8086
:1034E000C290C2918F80123322D2A6123322C2A67A
:0134F00022B9
:10351500D290C2918F80123322D2A6123322C2A634
:013525002283
:1034A700C291C2A6C2917F381234E07F0C1234E079
:0A34B7007F061234E07F010234E0CA
:102B71009001E61234DA90021DE0FEA3E0FFD39447
:102B810032EE648094809001EB74FF400DF0A374E9
:102B910030F0A374B3F0A3EE8014F0A37430F0A36B
:102BA10074D4F090021DE0FFA3E09001EECFF0A3FA
:102BB100EFF090021BE0FFA3E09001F0CFF0A3EF54
:102BC100F07B017A0079F71221C89001EB74FFF0D4
:102BD100A37430F0A374C9F0A37401F0A37401F0DD
:102BE100A3746DF07B017A01790C1221C8E4900184
:102BF100E6F0A3F07B017A0079F71200269001E656
:102C0100E0FCA3E0FDC39FEE6480F8EC6480985083
:102C1100131233139001E7E004F070D89001E6E05D
:102C210004F080D07FC01234E0E49001E6F0A3F01C
:102C31007B017A01790C1200269001E6E0FCA3E009
:102C4100FDC39FEE6480F8EC648098501A740C2DDB
:102C5100F582740112331A9001E7E004F070D1900B
:072C610001E6E004F080C968
:012C68002249
:102C69009001DE1234DA9001EB74FFF0A37430F0B6
:102C7900A374EBF07B017A0079F71221C89001EB7C
:102C890074FFF0A37430F0A374FFF07B017A01792B
:102C99000C1221C8E49001DEF0A3F07B017A0079DF
:102CA900F71200269001DEE0FCA3E0FDC39FEE646D
:102CB90080F8EC64809850131233139001DFE0041C
:102CC900F070D89001DEE004F080D07FC01234E0CB
:102CD900E49001DEF0A3F07B017A01790C12002661
:102CE9009001DEE0FCA3E0FDC39FEE6480F8EC6494
:102CF9008098501A740C2DF582740112331A9001C0
:0E2D0900DFE004F070D19001DEE004F080C93C
:012D17002299
:1013E700EC4D6011E8497017ED33EC3304600DE400
:1013F700FCFFFEFD22E933E8330470F802163712CA
:10140700160258046009E4CC2481500628500902CA
:10141700164128400302163EC0E0EB4A7044B980EB
:1014270006D0E0FB02162DEF4E701CBD8008EBFFC7
:10143700EAFEE9FD80EBE98DF0A4FEE5F00214D0A9
:10144700E9CDF9EAFEEBFFEF89F0A4FCE5F0CE89E0
:10145700F0A42EFFE435F0CD89F0A42DFEE435F09D
:101467008067EF4E7005BD80D780C3EF8BF0A4ACCB
:10147700F0EE8BF0A42CFCE435F0F8EF8AF0A42C06
:10148700E5F038FCE433CB8DF0A42CFCE5F03BF819
:10149700EE8AF0A42CFCE5F038F8E433CF89F0A409
:1014A7002CFCE5F038CF3400CE89F0A42FFFE5F00F
:1014B7003EFEE433C98DF0A42EFEE5F039CD8AF067
:1014C700A42FFFE5F03EFEE43DFD33D0E0FB5007DF
:1014D7000BBB000F021641EC2CFCEF33FFEE33FE83
:0614E700ED33FD021619B1
:1014ED00021641EC5D046005E859047003021637DD
:1014FD00121602580460F6EC4860F2EC7004FDFE22
:10150D00FF22C860DB2481C85009C39860025006D1
:10151D0002163E9850CAF582E9294B4A7005AB82F6
:10152D0002162D75F0007C1A7880C3EF9BEE9AEDB4
:10153D0099400DC3EF9BFFEE9AFEED99FDE842F049
:10154D00DC23ACF0D0E0FFD0E0FED0E0FDAB82209C
:10155D00E7101BEB60BAEC2CFCEF33FFEE33FEED26
:10156D0033FD021619E803F830E705C0F075F000F9
:10157D00EF2FFFEE33FEED33FD40B830E7C280AA0A
:10158D0075F020800E75F010800575F0087D007ED9
:10159D00007F003392D530D5031219E1EC334010A2
:1015AD00EF33FFEE33FEED33FDEC33FCD5F0ED22E2
:0E15BD00E5F0247EA2D513CC92E7CDCEFF221E
:1015CB00EDD2E7CD33EC3392D524814006E4FFFE18
:1015DB00FDFC22FCE4CFCECDCC24E0501174FF8077
:1015EB00EDC3CC13CCCD13CDCE13CECF13CF047014
:0715FB00F030D5DE0219E11A
:10216300E51524EBF582E43401F583E005152290AF
:1021730001E83010039001EBE475F0011219EF024E
:1021830018F62009E97F2ED2098018EF540F249006
:10219300D43440D4FF300D0BEF24BFB41A005003E6
:1021A3002461FFE516600215160519E5197002058D
:1021B3001830100E9001E8E475F0011219EFEF02E8
:1021C300193C0233D27403D2108003E4C210F51514
:1021D3009001E8121A06E4F516F518F519E51660EC
:1021E300077F201221A680F57517FFC20AC209C214
:1021F3000BC20CC20EC20FC211122172FF700D303E
:1022030010057F001221B7AF19AE1822B4255FC2A3
:10221300D5C20D122172FF24D0B40A00501A75F0F2
:102223000A781630D50508B6FF0106C6A426F6209F
:10223300D5047002D20C80D924CFB41A00EF500415
:10224300C2E5D20D0224A9D20A80C6D20980C0D227
:102253000B80BCD2D580BAD20E80B47F201221A6C7
:10226300200B077401B5160040F1122163FF122100
:10227300A60221E0D211D20F8095122163FB122115
:1022830063FA122163F94A4B700679A77A257BFF1B
:10229300200B2EE516602A7E008E827583001219AC
:1022A3000F60060EEE651770F0C2D5EBC0E0EAC012
:1022B300E0E9C0E0EE12250AD0E0F9D0E0FAD0E080
:1022C300FB1218F6FF60AAEBC0E0EAC0E0E9C0E049
:1022D3001221A6D0E02401F9D0E03400FAD0E0FBCB
:1022E300E5170460DCD517D98087D20B80A21224AE
:1022F300EC60F7E51770010412164CA917600DE5A1
:1023030017600914F517122594EF60F3EA30E7021A
:10231300F404C3995079EAF425170430E701E4047F
:10232300F517800D1224EC60C1EA05172517121664
:102333004CEA900217F030E701E4251704D517049F
:10234300200E011412250AE4C0E01225949002170E
:10235300E0601320E70714F012218E802204F0D0EE
:10236300E014C0E07F0012218EE51760071221857B
:102373001517800B300E03122185D0E00221E0D027
:10238300E00480C41224EC609EE5170412164C90FE
:102393000217EAF0E517200E026001042404122557
:0123A3000A2F
:1023A40074FF04C0E012259412218EE517200E025A
:1023B4006003122185D0E0B517E87F45122198907B
:1023C4000217E07F2B30E7047F2DF404C0E01221D4
:1023D400A6D0E075F00A84C0F012218FD0E012215B
:1023E4008F0221E0791080027908C20FC21180089F
:1023F400D2D5790A8004790AC2D5E517047002F5AA
:1024040017E4FAFDFEFF122163FC7B08200A131275
:102414002163FD7B1030090A122163FE122163FF40
:102424007B20EC3382D592D55013C3E43009069F48
:10243400FFE49EFEE4200A039DFDE49CFCE4CBF84B
:10244400C20AEC700CCFCECDCCE824F8F870F3803F
:1024540017C3EF33FFEE33FEED33FDEC33FCEB3308
:10246400FB994002FB0FD8E9EB300A05F8D0E0C431
:1024740048B20AC0E00AEC4D4E4F78207B0070C28F
:10248400EAB5170040BCC0E012250CD0F0D0E02023
:102494000A04C4C0E0C4B20AC0F012218FD0F0D53F
:1024A400F0EB0221E0121A0F227D5323E858224E4A
:1024B4004C224A4223EC4F23F44423F4492263433D
:1024C40023FA5523274623874522F14725C750225F
:1024D400522D22562E22792B225A2322772025B0E0
:1024E4002A22124800002271E517B4FF037517066B
:1024F400122163FC122163FD122163FE122163FF8A
:10250400900210021689790AA2D5200C14300E0903
:10251400B910020404B9080104A2D5200F02500125
:1025240004200B68920BB516005034C0E07F2030B5
:102534000C197F30A20B720F720E500F122563C25A
:102544000BC20FC20EC2117F30800F300E03E9C0E0
:10255400E01221A6300E03D0E0F9D0E0B516CC305D
:102564000E177F30B9100C1221A67F58300D077F4B
:10257400788003B908031221A6300B057F2D0221B0
:10258400A67F202011F87F2B200FF322920B80CFFF
:102594007F00B40700500B2410F582E43402F58365
:1025A400E0FF22286E756C6C2900D20A1221633078
:1025B4000AF8C20A781630D50108F60222122D5004
:1025C4004349581221632403B405004001E49025D3
:1025D400C293122197743A122197D20C75160402F1
:0225E40023E8EA
:10160200E9D2E7C933E833F892D5EDD2E7CD33EC2E
:0716120033FC5002B2D522A7
:10161900EC30E7100FBF000C0EBE00080DBD000432
:101629000BEB6014A2D5EB13FCED92E7FD2274FFDE
:10163900FCFDFEFF22E480F8A2D574FF13FC7D8037
:03164900E480EF4B
:10164C00F920E73624F950037907E4F42402FBE58A
:10165C0082158270021583DBF6E024FB501BE960D7
:10166C0014E4F0E582158270021583E004F0B40AEC
:0D167C0008E4F0D9EE7401F00A22C2D52274
:10168900ED33EC3392D5FA602AB4FF33EDC2E77B30
:10169900FF60067A1679AEE4227A1679B720D50466
:1016A9007A1679B2224E614E002B494E46002D49D9
:1016B9004E4600E47A08F0A3DAFC7B00740722C0E6
:1016C90083C082ECC0E0EDC0E0EEC0E0EFC0E0EA2C
:1016D90075F010A4CAABF075F04DA42BFBE435F0FE
:1016E900FCEA2410FAEB34C5FBEC34D9FCEDC2E773
:1016F900FF75F056A4F42411C5F0F434C58FF0A495
:101709002AE5F03BE43CF020E7141218B6D0E0FFDC
:10171900D0E0FED0E0FDD0E0FC1214F08014F40417
:101729001218B6D0E0FFD0E0FED0E0FDD0E0FC1208
:1017390013E7D082D083E0FAEDD2E7CD33EC33243E
:1017490082FBE4C3CF33CFCE33CECD33CD33DBF3FE
:101759007B0775F00A846004F0A31B0AE5F0F0A387
:101769008FF0740AA4FFACF08EF0740AA42CFEACBE
:10177900F050010C8DF0740AA42CFDE435F0F0A3AF
:05178900DBDE74072205
:10178E00021637E86480F8E933E83360110460F03C
:10179E00ED33EC337009E8FCE9FDEAFEEBFF2204C1
:1017AE0060DED3EB9FEA9EE99DE8C2E78CF0C2F7BC
:1017BE0095F0400CE8CCF8E9CDF9EACEFAEBCFFB88
:1017CE0012160285D0F05804700320D5B3E80470C9
:1017DE00075002B2D502164192D5EC0460F7E4CC64
:1017EE00C0E0C398F8603B94186008400DD0E0FB51
:1017FE00021619E4FBFAC9FC8028E830E406E4C9B5
:10180E00FBE4CAFCE830E305E4C9CACBFCE85407A4
:10181E006010F8C3E913F9EA13FAEB13FBEC13FCAF
:10182E00D8F130F52FC3E49CFCEF9BFFEE9AFEED52
:10183E0099FDD0E0FBEF4E4D4C701222DB030216E9
:10184E003EEC2CFCEF33FFEE33FEED33FDED30E7D7
:10185E00EB021619EF2BFFEE3AFEED39FDD0E0FB51
:10186E0050130BBB0003021641ED13FDEE13FEEFFA
:08187E0013FFEC13FC02161924
:101886003F8000004120000042C80000447A00006A
:10189600461C400047C35000497424004B189680EC
:1018A6004CBEBC205A0E1BCA6753C21C749DC5AEE3
:1018B600FB60065407601C23231218E4EB543860BF
:1018C600091218D01218DF1213E7ECF8EDF9EEFA48
:1018D600EFCB22EB1218DF80F1543803241C90184A
:1018E60086FE93FC0EEE93FD0EEE930ECE93FF2234
:03000000022DBF0F
:0C2DBF00787FE4F6D8FD758122022E0614
:1018F600BB010689828A83E0225002E722BBFE02F0
:09190600E32289828A83E4932222
:10190F00BB010CE58229F582E5833AF583E022508D
:10191F0006E92582F8E622BBFE06E92582F8E222D7
:0D192F00E58229F582E5833AF583E49322F1
:10193C00BB010689828A83F0225002F722BBFE018A
:02194C00F32284
:10194E00EF8DF0A4A8F0CF8CF0A428CE8DF0A42EAD
:02195E00FE2267
:10196000BC000BBE0029EF8DF084FFADF022E4CC6B
:10197000F875F008EF2FFFEE33FEEC33FCEE9DEC34
:10198000984005FCEE9DFE0FD5F0E9E4CEFD22ED7A
:10199000F8F5F0EE8420D21CFEADF075F008EF2FC4
:1019A000FFED33FD4007985006D5F0F222C398FDB5
:0519B0000FD5F0EA2252
:1019B500C5F0F8A3E028F0C5F0F8E58215827002BD
:0619C5001583E038F0225A
:1019CB00A3F8E0C5F025F0F0E582158270021583CF
:0619DB00E0C838F0E8222C
:0E19E100C3E49FFFE49EFEE49DFDE49CFC2217
:1019EF00F8E0FBA3A3E0F925F0F0E5821582700281
:0719FF001583E0FA38F02225
:091A0600EBF0A3EAF0A3E9F022E1
:101A0F00D083D082F8E4937012740193700DA3A366
:101A1F0093F8740193F5828883E47374029368607A
:061A2F00EFA3A3A380DF7A
:1033D200EFB40A07740D1233DD740A309811A899FC
:1033E200B8130CC2983098FDA899C298B811F6305B
:0733F20099FDC299F5992233
:101A3500E3F5F009E208B5F06D606B80F3E3F5F0CE
:101A450009E608B5F060605E80F387F009E608B541
:101A5500F054605280F487F009E208B5F04860461A
:101A650080F488828C8387F009E0A3B5F03860366E
:101A750080F488828C8387F009E493A3B5F027600E
:101A85002580F388828C83E3F5F009E0A3B5F01691
:101A9500601480F388828C83E3F5F009E493A3B5A1
:101AA500F004600280F2021B60808580E7808E80F2
:101AB500D2803C8015806C807E809B80B5808B8039
:101AC500A1804F8070803A021B6C89828A83ECFA70
:101AD500E493F5F0A3C8C582C8CCC583CCE493A331
:101AE500C8C582C8CCC583CCB5F070606E80E1896D
:101AF500828A83E493F5F0A3E208B5F05E605C802A
:101B0500F289828A83E0F5F0A3E608B5F04D604BD3
:101B150080F389828A83E0F5F0A3E208B5F03C60A2
:101B25003A80F389828A83E493F5F0A3E608B5F059
:101B35002A602880F2805389828A83ECFAE493F53F
:101B4500F0A3C8C582C8CCC583CCE0A3C8C582C8EC
:101B5500CCC583CCB5F004600280E27FFFB5F0020E
:101B65000F2240027F012289828A83ECFAE0F5F098
:101B7500A3C8C582C8CCC583CCE0A3C8C582C8CCE0
:101B8500C583CCB5F0D560D380E389828A83ECFA2E
:101B9500E0F5F0A3C8C582C8CCC583CCE493A3C83F
:101BA500C582C8CCC583CCB5F0B160AF80E288F002
:101BB500ED2402B4040050A3F582EB2402B4040022
:0B1BC50050992323458223901AAE7331
:102ED3009001E6EBF0A3EAF0A3E9F09001E9E0FB4F
:102EE300A3E0FAA3E0F91218F6FE9001E6E0FBA3D3
:102EF300E0FAA3E0F91218F6FF6E702AEF600E9065
:102F030001EC74FFF5F01219B545F070037F002250
:102F13009001E7E475F0011219B59001EAE475F048
:102F2300011219B580B59001E6E0FBA3E0FAA3E036
:102F3300F91218F6FDD3EE6480F8ED64809840032F
:102F43007F01229001E9E0FBA3E0FAA3E0F9121864
:072F5300F6FFC3ED9FFF2212
:101BD000E709F60870FA8046E709F20870FA803ED5
:101BE00088828C83E709F0A370FA807EE309F60807
:101BF00070FA8076E309F20870FA806E88828C832E
:101C0000E309F0A370FA806289828A83E0A3F60870
:101C100070FA805689828A83E0A3F20870FA804ABB
:101C200080D280FA80C680D4806580F280318010B6
:101C300080A680EA809A80A880DA80E280CA80311B
:101C400089828A83ECFAE493A3C8C582C8CCC58391
:101C5000CCF0A3C8C582C8CCC583CC70E9800D89FF
:101C6000828A83E493A3F60870F9ECFAA9F0EDFBFD
:101C70002289828A83ECFAE0A3C8C582C8CCC583D6
:101C8000CCF0A3C8C582C8CCC583CC70EA80DD89FE
:101C9000828A83E493A3F20870F980CE88F0ED2461
:101CA00002B4040050C4F582EB2402B4040050BA1C
:091CB0002323458223901C2073BC
:10002600E4FFFE1218F6600C0FEF70010E09E9707E
:05003600F20A80EF2238
:102DCB00021CB9E493A3F8E493A34003F68001F249
:102DDB0008DFF48029E493A3F85407240CC8C33309
:102DEB00C4540F4420C8834004F456800146F6DFD8
:102DFB00E4800B01020408102040809027DBE47E66
:102E0B00019360BCA3FF543F30E509541FFEE493CC
:102E1B00A360010ECF54C025E060A840B8E493A393
:102E2B00FAE493A3F8E493A3C8C582C8CAC583CABE
:102E3B00F0A3C8C582C8CAC583CADFE9DEE780BE76
:012970000066
:00000001FF
